:0400000080312528FE
:1000060008007E1480312E00161E0A280B2813289D
:100016000C1E0E280F281328803103208031232838
:100026000B1F162817282328191C1A281B282328D3
:100036000F1C1E281F2823288731F22780312328EA
:100046007E10090080312728FA01FB012000EE010D
:10005600EF01A03084000030850031308F31AE27AB
:100066008031203084000130850040308F31AE274A
:100076008031A03084000130850021308F31AE27D9
:1000860080317E1020008331B62B20003508031DF9
:100096005628013032020630333BF930343B031C1C
:1000A60055285628602800302000B5000030B400DE
:1000B6000030B3000030B2003F2A00302000A70015
:1000C6000030A6000C30A5003530A4001A30B90067
:1000D6000630BA000030BB000030BC003508F50021
:1000E6003408F4003308F3003208F2000030F90057
:1000F6000030F8000030F7006430F6008631332611
:10010600803172082000B9077308BA3D7408BB3DF8
:100116007508BC3D3C08AB003B08AA003A08A9009C
:100126003908A80085315625803120002708C900E6
:100136002608C8002508C7002408C6000030DB00D2
:100146000030DA000030D9000030D800D201D301E7
:100156000030D1000030D0000030CF000030CE009B
:100166001030E4006408A4008039031DFF30A500A8
:10017600A600A7004908AB004808AA004708A9003E
:100186004608A80085315625803120002708D7006B
:100196002608D6002508D5002408D4000730E50037
:1001A600E51FD628D728D8281B2A6508031DDC2872
:1001B600DD28E6285708E3005608E2005508E10066
:1001C6005408E00017290130B9000030BA000030A9
:1001D600BB000030BC005408BD005508BE005608E0
:1001E600BF005708C0006508FF3E890AFE28C036D2
:1001F600BF0CBE0CBD0C890BFA283D08B9073E089A
:10020600BA3D3F08BB3D4008BC3D0130BC36BB0C87
:10021600BA0CB90C890B09293C08E3003B08E2003B
:100226003A08E1003908E0006308620461046004EA
:1002360003191E291F29152A6308031D2A29620886
:10024600031D2A290130610203182A292B29152AA0
:1002560020006308031D3A296208031D3A29610834
:10026600031D3A290230600203183A293B29432923
:1002760020006508803A7F3E031C42294329152A3F
:1002860035302000B9000C30BA000030BB00003019
:10029600BC00650A5229B935BA0DBB0DBC0D890BD8
:1002A6004E293C08F5003B08F4003A08F3003908EB
:1002B600F2006408F6008039031DFF30F700F800ED
:1002C600F90086313326803175082000CD00740888
:1002D600CC007308CB007208CA000030A7000030BB
:1002E600A6000030A5006430A4004D08F5004C08B7
:1002F600F4004B08F3004A08F2006308F9006208AC
:10030600F8006108F7006008F60086313326803170
:1003160075082000AB007408AA007308A9007208CB
:10032600A80085315625803120002708DF002608E1
:10033600DE002508DD002408DC0032085C02B90076
:1003460033085D3BBA0034085E3BBB0035085F3BB3
:10035600BC003C08F5003B08F4003A08F3003908F5
:10036600F2008631F526803172082000BD00730840
:10037600BE007408BF007508C00032085802C100EC
:100386003308593BC20034085A3BC30035085B3B6F
:10039600C4004408F5004308F4004208F30041088D
:1003A600F2008631F526803120004008803AC500EB
:1003B6007508803A4502031DEA2974083F02031DA9
:1003C600EA2973083E02031DEA2972083D02031852
:1003D600ED29EE29022A5F08DB005E08DA005D08D7
:1003E600D9005C08D8006408D2006508D300630809
:1003F600D1006208D0006108CF006008CE00350841
:100406005F06031D102A34085E06031D102A3308F2
:100416005D06031D102A32085C06031D132A142AE2
:10042600152A1B2AFF302000B9003908E507D32812
:10043600FF30B9003908E4076408803A7F3E0318A4
:10044600252A262AB5283608860087015308810002
:100456003708860087015208FF3E8100380886006B
:1004660087014E08FF3E81005B08B5005A08B400BC
:100476005908B3005808B20008002000AF00AA01CE
:10048600A90120088600870181015F2A8731532749
:100496008231023A031D502A512A5F2A20002F0872
:1004A600860001308700023081002F08203E86003A
:1004B600013087008101810A20002F08203E860036
:1004C600013087000108031D692A6A2A722A8F31C2
:1004D600A5278231003A031D712A722A492A200073
:1004E6002F08203E860001308700010803197C2A68
:1004F6007D2AB32B9A2A8731532782312000A40004
:100506002F08203E86000130870001082F07A5002E
:100516002508860001308700240881000130A400E8
:100526002F08203E860001308700240881078F317E
:10053600A5278231003A0319A12AA22AAE2A200051
:100546002F08203E86000130870020300102031C60
:10055600AD2AAE2A7E2A20002F08203E86000130D2
:10056600870003300102031CB92ABA2AB32B2F08CD
:100576008600013087000130413FAE0021302E0257
:100586000318C62AC72ACD2A2E0823020318CC2A06
:10059600CD2AD22A1E30AA00A901A90A742B04303A
:1005A6002E020318D72AD82ADB2A1F30AA00CF2A00
:1005B6002F08203E8600013087002E080102031C0A
:1005C600E52AE62A742B2F088600013087000130C1
:1005D600423FAC002208860087012E08FC3E8100BF
:1005E6002E082F07A4002408FF3E8600013087004E
:1005F60001082E072C07023EA7002108A8002F0895
:10060600033EAB00AD01242B2B088600013087008A
:100616000108A4002408A7072808860087012B08DC
:10062600840001308500000881000130A400240800
:10063600AB070130A4002408A8070130A400240851
:10064600AD0722088600870101082D02031C2C2B0A
:100656002D2B072B27080319312B322B332BD82AA6
:100666002F08203E86000130870001082E06031D54
:100676003D2B3E2B452B2F08203E86000130870060
:100686008101662B2F08203E860001308700010875
:10069600A6002F08203E8600013087002E08810222
:1006A6002F082607F2002F08203E8600013087001B
:1006B6000108A400A5012408F3002508F4002F086A
:1006C6008631CE26823120002C08031D6B2B6C2B25
:1006D6006F2B1F30AA00742B2008860087012C0878
:1006E600810029080319782B792BB32BAD01AD0AAC
:1006F6008E2B2D082F07A4002408860001308700C2
:1007060002300106031D882B892B8A2B992B013079
:10071600A4002408AD072F08203E8600013087007C
:1007260001082D02031C982B992B7C2B2F08203EA9
:100736008600013087002D0881022F082D07F20060
:100746002F08203E8600013087000108A400A5017D
:100756002408F3002508F4002F088631CE268231BE
:1007660020002A0808008731172783318731BD27E3
:100776008331A0308F31BC2783312100A001A10134
:100786008B170B17D0302000A000A630A100CF3069
:10079600A2002030A300A030823140228331003AEB
:1007A600031DD62BD72BA02C862C4F03031DDC2B29
:1007B600DD2BEA2B2608031DE12BE32B0130E42B6E
:1007C60000308F31CD2783312000ED01ED2B1F3016
:1007D6002000ED006D30F400F501F50A2100500807
:1007E6008531B1258331A02C08304F06031DFC2B23
:1007F600FD2B3A2CC7302000EB00CB30EC00A630A6
:1008060086008701403F2100D900413FDA00423F80
:10081600DB00433FDC0020006B08860087012100D7
:100826005908C03F5A08C13F5B08C23F5C08C33F36
:1008360020006C088600870121002A08C03F2B088B
:10084600C13F2C08C23F2D08C33F20006C08E600BC
:100856006B088431B92483312100C601C630F40007
:100866000930F50050088531B1258331A02C1F30A1
:100876002000ED006D30F400F501F50A2100500866
:100886008531B1258331A02C4F03031D4B2C4C2CF5
:10089600592C2608031D502C522C0130532C0030A5
:1008A6008F31D62783312000ED015C2C1F302000CC
:1008B600ED006D30F400F501F50A21005008853190
:1008C600B1258331A02C4F08031D6A2C6B2C792C83
:1008D6002108C8002008C700C601C630F40003304E
:1008E600F50050088531B1258331A02C1F3020003A
:1008F600ED006D30F400F501F50A21005008853150
:10090600B1258331A02C21005008D900DA015A08FC
:10091600003A03198F2CA02C5908003A0319A02C71
:10092600013A0319D82B033A0319F72B013A031995
:10093600472C073A0319662CA02C24008F19A42CE7
:10094600A52CC52B87313627833173082100A100DA
:100956007208A0000030F200F3008731E1278331EE
:100966008F31A2278331C52B803125282100D8005D
:10097600580886008701403F2000B200413FB3007F
:10098600423FB400433FB500D230B600D330B70083
:10099600D430B800803148208431210058088600C0
:1009A600870120003208C03F3308C13F3408C23FE8
:1009B6003508C33F660886008701403FB200413FC5
:1009C600B300423FB400433FB500D530B600D63041
:1009D600B700D730B800803148208431200066083F
:1009E600860087013208C03F3308C13F3408C23F42
:1009F6003508C33F2100580886008701403F200084
:100A0600E700413FE800423FE900433FEA006A0849
:100A16006904680467040319112D122D552D660803
:100A260086008701403FE700413FE800423FE9007A
:100A3600433FEA006A086904680467040319242D21
:100A4600252D552D250014082100D10025009401DF
:100A56002100540825008D00210057082500930029
:100A6600210052082000E7000430E735890B382DB5
:100A760025000E0880392000670421005304250054
:100A86008E00210055082000E7000430E735890B69
:100A9600492D2100510880392000670421005604A1
:100AA60025009400080000302000B0000030AF00A0
:100AB6000030AE000030AD002708260425042404CB
:100AC6000319662D672DA82DB101B10A752D0130C8
:100AD600A435A50DA60DA70D890B6B2D0130AC0015
:100AE6002C08B107A71F782D792D6A2D0130AD3559
:100AF600AE0DAF0DB00D890B7A2D27082B02031D05
:100B06008E2D26082A02031D8E2D25082902031D77
:100B16008E2D24082802031C912D922D9B2D24082E
:100B2600A8022508A93B2608AA3B2708AB3B2D149B
:100B36000130A736A60CA50CA40C890B9C2D013000
:100B4600B102031DA72DA82D792D3008A7002F0867
:100B5600A6002E08A5002D08A40008002000A0006D
:100B66007508043EA30023087A020318BB2DBC2D8A
:100B7600BD2DF52D023086319E26853102302000AE
:100B8600A100230886319E26853120002308F60021
:100B96007608A107200886319E2685312000200888
:100BA600F6007608A107E92D74088600870101087A
:100BB600A2000130F6007608F407220886319E2648
:100BC600853120002208F6007608A1070130F502DB
:100BD600750A031DEF2DF02DD72D2103FF3A86311F
:100BE6009E26853108002000960197019801FF3066
:100BF6009100FE3092007F3093001D303E00CE0003
:100C0600F230C300FF30B800E5010C30C400B90172
:100C16006030CF00BA01C501D001FF30BB00FF3004
:100C2600C600FF30D100FF30BC00FF30C700FF30E8
:100C3600D200E8012E00161615303D0093000B3049
:100C4600C50015309C0015303E00980016303D005A
:100C5600C70003303E00A7000A303D00C60008006A
:100C660000302000A3000030A2000030A1000030B8
:100C7600A000721C3F2E402E492E76082000A007A9
:100C86007708A13D7808A23D7908A33D0130F635E5
:100C9600F70DF80DF90D890B4A2E0130F536F40CD7
:100CA600F30CF20C890B512E75087404730472044C
:100CB600031D5E2E5F2E3C2E20002308F500220821
:100CC600F4002108F3002008F20008002E000F109F
:100CD6007B0803196F2E702E7E2E20006F08403E73
:100CE600860001308700700881006F08013E1F39B9
:100CF600EF000130FB0220307A060319832E842E82
:100D06009B2E0130F1007108FA0720307A0603198C
:100D16008D2E8E2E9B2E21002408203E860001302B
:100D260087000108F0002408013E1F39A4009C2E0C
:100D3600F00170080800F300F201F20A7A080319BC
:100D4600A52EA62ECD2E2E00191020307A06031DB4
:100D5600AD2EAE2EB52E730823008C000030901BEE
:100D66000130F20072080319B92EBA2EC82E2100DE
:100D76002508203E8600013087007308810025087B
:100D8600013E1F39A500230090130130FA022E0000
:100D96001914CD2E0800F9007208F8007908F7003A
:100DA600E82E78088600013087000108F600013039
:100DB600F5007508F8077708860001308700760881
:100DC60081000130F5007508F7070130F3020030A5
:100DD600F43B730A031DF32E740A031DF32EF42E3F
:100DE600D42E0800F51B062F7508031D052F740861
:100DF600031D052F7308031D052F0130720203180A
:100E0600052F062F162F7209F2007309F3007409D5
:100E1600F4007509F500F20A0319F30A0319F40A36
:100E26000319F50A162F08008F31B427873185314B
:100E3600F62587318F31C42787318731CF27873110
:100E46008731A927873187318127873187319527D0
:100E560087318F31F02787318F31E127873187310D
:100E66006C278731080024008E140C082000A3008C
:100E760024000D082000A2002308F400F501220832
:100E8600F600F7017608F700F60174087604A0006C
:100E960075087704A1002108F3002008F200080075
:100EA600F30120307B060319592F5A2F6A2F200091
:100EB6006E08403E8600013087000108F3006E0888
:100EC600013E1F39EE000130F2007208FB0773087D
:100ED6000800903024008F009001013091008D01B0
:100EE6008C010D082100A30024000C082100A2009B
:100EF6002E001010373024008E0008000A303C0007
:100F0600A5000C30A6000E30A7000E30A8000E304B
:100F1600A9000230AA000830AB00AC01AD01803058
:100F2600A400080002303C009B0005309C000E30F7
:100F36009D000E309E000E309F000230A00008304B
:100F4600A100A201A30180309A00080002303C00F3
:100F56009100053092000C3093000C3094000C3058
:100F6600950002309600083097009801990180306C
:100F7600900008002000EF01EE012030FB00210068
:100F8600A501A4012030FA006930F2000630F30012
:100F96008F31A82787310800403023008F00343076
:100FA60090009201FF308C00FE30F2000730F30013
:100FB6008F31A82787312E001914080024000E1D32
:100FC600E52FE62FED2F0E1073088D0072088C00AA
:100FD6000E14F12F73088D0072088C000800230090
:100FE6000C08F00021005E088A005D080A008731BF
:0A0FF60023008C00080070080800BA
:101F440024008F1508007B08203C0800730821003A
:101F5400DE007208DD000800640080010131890B95
:101F6400AF2F00342F0096019701980199019A012F
:101F74009B010800F2007208203E860001308700B1
:101F840081010800603031008D008F01910106301D
:101F9400930092010800F200720C2500031C8E13BA
:101FA40003188E1794170800F2007208031DDB2F24
:101FB400DE2F3C002515E02F3C00251108000A30D7
:101FC4002500900004308F00910104308D008C01B5
:101FD4002E009010063025008E0008000B302500DE
:101FE40096000630950001309700FA309300920174
:0C1FF4002E0090117130250094000800B0
:020000040001F9
:0A000E00EC3FFF3F9F3FFF3FFF3F25
:00000001FF
