:020000040000fa
:080000000002040000000000f2
:020000040000fa
:0400080016030000db
:020000040000fa
:04000c0028030000c5
:020000040000fa
:0400100038030000b1
:020000040000fa
:040014001e030000c7
:020000040000fa
:0400180030030000b1
:020000040000fa
:04001c007a06000060
:020000040000fa
:040020004003000099
:020000040000fa
:040024007a06000058
:020000040000fa
:040028007a06000054
:020000040000fa
:04002c004803000085
:020000040000fa
:040030007a0600004c
:020000040000fa
:040034007a06000048
:020000040000fa
:040038007a06000044
:020000040000fa
:04003c007a06000040
:020000040000fa
:040040007a0600003c
:020000040000fa
:040044007a06000038
:020000040000fa
:040048007a06000034
:020000040000fa
:04004c002806000082
:020000040000fa
:040050007a0600002c
:020000040000fa
:04005400ec050000b7
:020000040000fa
:04005800ce050000d1
:020000040000fa
:04005c007a06000020
:020000040000fa
:040060007a0600001c
:020000040000fa
:040064007a06000018
:020000040000fa
:040068007a06000014
:020000040000fa
:04006c007a06000010
:020000040000fa
:040070007a0600000c
:020000040000fa
:040074007a06000008
:020000040000fa
:040078007a06000004
:020000040000fa
:04007c007a06000000
:020000040000fa
:040080007a060000fc
:020000040000fa
:040084007a060000f8
:020000040000fa
:040088007a060000f4
:020000040000fa
:04008c007a060000f0
:020000040000fa
:040090007a060000ec
:020000040000fa
:040094007a060000e8
:020000040000fa
:040098007a060000e4
:020000040000fa
:04009c007a060000e0
:020000040000fa
:0400a0007a060000dc
:020000040000fa
:0400a4007a060000d8
:020000040000fa
:0400a8007a060000d4
:020000040000fa
:0400ac007a060000d0
:020000040000fa
:0400b0007a060000cc
:020000040000fa
:0400b4007a060000c8
:020000040000fa
:0400b8007a060000c4
:020000040000fa
:0400bc007a060000c0
:020000040000fa
:0400c0007e030000bb
:020000040000fa
:0400c4007a060000b8
:020000040000fa
:0400c8007a060000b4
:020000040000fa
:0400cc007a060000b0
:020000040000fa
:0400d0007a060000ac
:020000040000fa
:0400d4007a060000a8
:020000040000fa
:0400d8007a060000a4
:020000040000fa
:0400dc007a060000a0
:020000040000fa
:0400e0007a0600009c
:020000040000fa
:0400e4007a06000098
:020000040000fa
:0400e8007a06000094
:020000040000fa
:0400ec000a06000000
:020000040000fa
:0400f0007a0600008c
:020000040000fa
:0400f4007a06000088
:020000040000fa
:0400f8007a06000084
:020000040000fa
:0400fc007a06000080
:020000040000fa
:040100007a0600007b
:020000040000fa
:040104007a06000077
:020000040000fa
:040108007a06000073
:020000040000fa
:04010c007a0600006f
:020000040000fa
:040110007a0600006b
:020000040000fa
:040114007a06000067
:020000040000fa
:040118007a06000063
:020000040000fa
:04011c007a0600005f
:020000040000fa
:040120007a0600005b
:020000040000fa
:040124007a06000057
:020000040000fa
:040128007a06000053
:020000040000fa
:04012c007a0600004f
:020000040000fa
:040130007a0600004b
:020000040000fa
:040134007a06000047
:020000040000fa
:040138007a06000043
:020000040000fa
:04013c007a0600003f
:020000040000fa
:040140007a0600003b
:020000040000fa
:040144007a06000037
:020000040000fa
:040148007a06000033
:020000040000fa
:04014c007a0600002f
:020000040000fa
:040150007a0600002b
:020000040000fa
:040154007a06000027
:020000040000fa
:040158007a06000023
:020000040000fa
:04015c007a0600001f
:020000040000fa
:040160007a0600001b
:020000040000fa
:040164007a06000017
:020000040000fa
:040168007a06000013
:020000040000fa
:04016c007a0600000f
:020000040000fa
:040170007a0600000b
:020000040000fa
:040174007a06000007
:020000040000fa
:040178007a06000003
:020000040000fa
:04017c007a060000ff
:020000040000fa
:040180007a060000fb
:020000040000fa
:040184007a060000f7
:020000040000fa
:040188007a060000f3
:020000040000fa
:04018c007a060000ef
:020000040000fa
:040190007a060000eb
:020000040000fa
:040194007a060000e7
:020000040000fa
:040198007a060000e3
:020000040000fa
:04019c007a060000df
:020000040000fa
:0401a0007a060000db
:020000040000fa
:0401a4007a060000d7
:020000040000fa
:0401a8007a060000d3
:020000040000fa
:0401ac007a060000cf
:020000040000fa
:0401b0007a060000cb
:020000040000fa
:0401b4007a060000c7
:020000040000fa
:0401b8007a060000c3
:020000040000fa
:0401bc007a060000bf
:020000040000fa
:0401c0007a060000bb
:020000040000fa
:0401c4007a060000b7
:020000040000fa
:0401c8007a060000b3
:020000040000fa
:0401cc007a060000af
:020000040000fa
:0401d0007a060000ab
:020000040000fa
:0401d4007a060000a7
:020000040000fa
:0401d8007a060000a3
:020000040000fa
:0401dc007a0600009f
:020000040000fa
:0401e0007a0600009b
:020000040000fa
:0401e4007a06000097
:020000040000fa
:0401e8007a06000093
:020000040000fa
:0401ec007a0600008f
:020000040000fa
:0401f0007a0600008b
:020000040000fa
:0401f4007a06000087
:020000040000fa
:0401f8007a06000083
:020000040000fa
:0401fc007a0600007f
:020000040000fa
:040200007a0600007a
:020000040000fa
:040204007a06000076
:020000040000fa
:040208007a06000072
:020000040000fa
:04020c007a0600006e
:020000040000fa
:040210007a0600006a
:020000040000fa
:040214007a06000066
:020000040000fa
:040218007a06000062
:020000040000fa
:04021c007a0600005e
:020000040000fa
:040220007a0600005a
:020000040000fa
:040224007a06000056
:020000040000fa
:040228007a06000052
:020000040000fa
:04022c007a0600004e
:020000040000fa
:040230007a0600004a
:020000040000fa
:040234007a06000046
:020000040000fa
:040238007a06000042
:020000040000fa
:04023c007a0600003e
:020000040000fa
:040240007a0600003a
:020000040000fa
:040244007a06000036
:020000040000fa
:040248007a06000032
:020000040000fa
:04024c007a0600002e
:020000040000fa
:040250007a0600002a
:020000040000fa
:040254007a06000026
:020000040000fa
:040258007a06000022
:020000040000fa
:04025c007a0600001e
:020000040000fa
:040260007a0600001a
:020000040000fa
:040264007a06000016
:020000040000fa
:040268007a06000012
:020000040000fa
:04026c007a0600000e
:020000040000fa
:040270007a0600000a
:020000040000fa
:040274007a06000006
:020000040000fa
:040278007a06000002
:020000040000fa
:04027c007a060000fe
:020000040000fa
:040280007a060000fa
:020000040000fa
:040284007a060000f6
:020000040000fa
:040288007a060000f2
:020000040000fa
:04028c007a060000ee
:020000040000fa
:040290007a060000ea
:020000040000fa
:040294007a060000e6
:020000040000fa
:040298007a060000e2
:020000040000fa
:04029c007a060000de
:020000040000fa
:0402a0007a060000da
:020000040000fa
:0402a4007a060000d6
:020000040000fa
:0402a8007a060000d2
:020000040000fa
:0402ac007a060000ce
:020000040000fa
:0402b0007a060000ca
:020000040000fa
:0402b4007a060000c6
:020000040000fa
:0402b8007a060000c2
:020000040000fa
:0402bc007a060000be
:020000040000fa
:0402c0007a060000ba
:020000040000fa
:0402c4007a060000b6
:020000040000fa
:0402c8007a060000b2
:020000040000fa
:0402cc007a060000ae
:020000040000fa
:0402d0007a060000aa
:020000040000fa
:0402d4007a060000a6
:020000040000fa
:0402d8007a060000a2
:020000040000fa
:0402dc007a0600009e
:020000040000fa
:0402e0007a0600009a
:020000040000fa
:0402e4007a06000096
:020000040000fa
:0402e8007a06000092
:020000040000fa
:0402ec007a0600008e
:020000040000fa
:0402f0007a0600008a
:020000040000fa
:0402f4007a06000086
:020000040000fa
:0402f8007a06000082
:020000040000fa
:0402fc007a0600007e
:020000040000fa
:040300007a06000079
:020000040000fa
:040304007a06000075
:020000040000fa
:040308007a06000071
:020000040000fa
:04030c007a0600006d
:020000040000fa
:040310007a06000069
:020000040000fa
:040314007a06000065
:020000040000fa
:040318007a06000061
:020000040000fa
:04031c0020060000b7
:020000040000fa
:040320007a06000059
:020000040000fa
:040324007a06000055
:020000040000fa
:040328007a06000051
:020000040000fa
:04032c007a0600004d
:020000040000fa
:100400000f2821000eff26000e01880000000000ca
:10041000000020000000e000020032000001200087
:100420002002880014000700590207000000e000c5
:1004300003003a0080672500010020000200370019
:100440000000200001002000810f70000100320038
:100450000f000700000020000000e0000200320052
:100460000000020000000000583b020000000000f5
:100470000040da000000fe00801c20000000e000c8
:1004800002003200002020009001880000000600d9
:10049000a1028800800478000000eb001f003700f4
:1004a000e284440054a0b4009905ba00e2844400f8
:1004b00054a0b4009906ba00e284440054a0b400e9
:1004c0000006eb00476fde00fd07b200ae018800ba
:1004d000636ce10003003a000ad801000000eb0061
:1004e0000e003700606ce10008003a00004deb00a0
:1004f0000a05e800020039003420ec000af0a000f0
:100500008b05e900f9ff3e00040037006168e10057
:10051000010032000086eb000b00070019c7ba008b
:100520001905ba000e04e00003003a000a00e000da
:10053000dbff3a0000000600fe07b200ae028800b2
:100540008a047800f5ff37000cd0a300e20f4d00bd
:100550001c003b0089027800354dba000a05e8000e
:10056000020039003420ec000af0a0008b05e900fd
:100570000f003200254dba000a05e80002003900dc
:100580003420ec000af0a0008b05e90008003200de
:100590000c00e0000600320015cdba000a05e800a4
:1005a000020039003420ec000af0a0008b05e900bd
:1005b0008984e80054a0b4000b00e000e2ff3a0098
:1005c000000006009902ba00055d78008b05e9007d
:1005d000f7ff3200c82ade00055d78008b05e900d0
:1005e000f3ff32000c00e000f1ff320019ddba0029
:1005f000eeff3700a85704000000000094420400fa
:1006000000000000e242040000000000ce340400bc
:1006100000000000561d040000000000c417040084
:1006200000000000100e0400000000003600f8007a
:10063000c028a9000000eb00b92b07003600f80025
:10064000bb2b0700c048a90010002000b42b0700f6
:100650003600f800c068a90020002000b02b070079
:100660003600f800c088a90030002000ac2b07003d
:100670003600f800c608a90070002000a82b07006b
:100680003600f800c408a900b0002000a42b070021
:100690003600f800809fbe00829fbe00849fbe008f
:1006a000869fbe000000fa00708580000000e00018
:1006b000020032007085800000000100d027210078
:1006c000104078008040e800d027210001487800e1
:1006d000c027210011c0b300014878000028a900fc
:1006e0000080fa004f03be004f02be004f01be0063
:1006f0004f00be003600f900004006003600f8004a
:10070000809fbe00829fbe00849fbe00869fbe0069
:100710000000fa0004c8a9000111800000082000b0
:10072000008060000000e0000800320020e2a90024
:100730007a30ef0000848000200090008000eb0001
:10074000010878008030ef000d013700d083800071
:100750008000eb00b200200003002000820f500058
:10076000838f5800fc003e00000601000b0037009c
:1007700039003700750037009c003700f300370060
:10078000c8003700d9003700f0003700db00370021
:10079000f1003700340037005000370020072100f7
:1007a00020009000620060000000e000f3003a00ca
:1007b00020072100100090000084880020072100fd
:1007c00010009000104078007cf0b7002007210056
:1007d0001000900010009000f08388002007210096
:1007e00010009000e6004000200721001100980052
:1007f000200721009000900060252100808f50008c
:1008000003003a0020072100012521001100980073
:1008100020072100a00090000100a1002100980005
:100820002007210090009000200721001000780090
:10083000808f500004003a0020072100a0009000a3
:100840000110a000210098001c02a8002000200038
:10085000d0838800ca0037001c22a8002000200096
:10086000d0838800c60037000111800000002800f6
:10087000008060000000e000080032002007210036
:10088000604090008040e80020072100614098000f
:100890004000200051250700b90037002084800067
:1008a0008000d100f00f20000080600080118800df
:1008b0002084800061006000004078000004e000b7
:1008c00003003200b0002000d0838800ac00370065
:1008d00030002000d0838800a9003700011180007b
:1008e00000002800008060000000e00008003200e6
:1008f00020072100604090008040e8002007210090
:100900006140980040002000342507009c0037001b
:100910001c22a800208480004800de00e600600061
:10092000000f2000010070002084880020848000d7
:100930000000a0002084880010c0b30086f0b7003b
:1009400020002000d08388008d00370086d0bf00b3
:10095000e14f50000a003200f08380001000780060
:1009600020848800f083800020009000408488006c
:10097000f0838000204090008af0b700010037002b
:100980008670ef0021848000f00f2000808f5000df
:1009900009003600208480004800de00e600600088
:1009a000000f20000100700080118800a0002000ce
:1009b000d083880072003700208480008011880076
:1009c0002084800061006000004078000004e000a6
:1009d0000300320050002000d083880068003700f8
:1009e00030002000d08388006500370001118000ae
:1009f00000002800008060000000e00009003200d4
:100a000020072100604090008040e800200721007e
:100a10006140980021e2a90050002000ef24070067
:100a2000570037008ad0bf008080fb008100e900ba
:100a3000cf08de00814078000040e9008af0b7006e
:100a40000104e00010003200f083800066004000e6
:100a5000f08388007cd0bf000040e9007cf0b70044
:100a60007cd0bf000004e00003003a00200020001a
:100a7000da240700420037001c22a80020002000d2
:100a8000d08388003e00370040848000904078008a
:100a90008180fb00811188000000e800408488000c
:100aa000370037000111800000002800008060003e
:100ab0000000e000090032002007210060409000a3
:100ac0008040e8002007210061409800400020009d
:100ad000c224070021e2a900290037001c62a800f7
:100ae00080002000d083880025003700800020008f
:100af000d08388001c62a800210037004084800059
:100b0000a111800081407800014878000000e800d1
:100b1000408488008ad0bf000040e9008af0b70016
:100b20008ad0bf000004e000040032001ca2a9002b
:100b300060002000d0838800020037001ca2a800bb
:100b4000952407001c82a8000d003700200020001b
:100b5000a22407000a00370020072100604090000f
:100b60008040e800200721006140980060002000dc
:100b70009a24070000000000010037000000000078
:100b80000080fa004f03be004f02be004f01be00be
:100b90004f00be003600f900004006003600f800a5
:100ba000809fbe00829fbe00849fbe00869fbe00c5
:100bb0000000fa00b0848000000001000080fa000c
:100bc0004f03be004f02be004f01be004f00be00eb
:100bd0003600f900004006003600f800809fbe0095
:100be000829fbe00849fbe00869fbe000000fa0068
:100bf000c0848000000001000080fa004f03be00a6
:100c00004f02be004f01be004f00be003600f9008b
:100c100000400600801f78000000fa00e01180000c
:100c2000620060000000e000010032003c22a900e8
:100c30000628a9000080fa004f0078000040060056
:100c40000000fa0017a8a9000080fa000040060082
:100c50003600f800809fbe00829fbe00849fbe00c9
:100c6000869fbe003200f8003400f800100020001b
:100c7000a00188000020200000d0fe000200fa0041
:100c80000128a900b4c2a900b502a900001680007d
:100c9000610060000000e0000d003200a01580003f
:100ca000610060000000e00009003200c015800013
:100cb000004078008e007800b81d07000004e000b6
:100cc000030032001e4078000080fb00c015880041
:100cd0000080fa003400f9003200f9004f03be0032
:100ce0004f02be004f01be004f00be003600f900ab
:100cf000004006000040da000000fe000a00fa0092
:100d000011002000b1bf9f00c0bf9f006a80570044
:100d1000670c07004fb897000080fa00000006003b
:100d20000a00fa002007980031079800420798004f
:100d3000be009000110798000000eb00000f780043
:100d40000c003700000000007b1e07000004a2001a
:100d50000004e000fcff3a001e0090001040780004
:100d60009e0090008100e80011079800521e0700c5
:100d70001e0fe8004e0090009e007800808f50000b
:100d8000f0ff39004e0090000080fa0000000600dd
:100d900000000500839f68000100e00002003d00a4
:100da00060001000e08018000300e00002003d0039
:100db00060011100e08119000a0007004f00e00007
:100dc00002003b0060001000e080180000000600f8
:100dd0004f89de0082017800790237006011b80087
:100de000870237006022b800060220000000d00011
:100df0008180d2000482d2008582d2000000a0004f
:100e00000202520083825a000300310002024200b3
:100e100083824a000000a1000603e900f3ff3a00c4
:100e200000000600889fbe008a9fbe008c9fbe0007
:100e30001b0020000202be00058668000600280094
:100e4000060666004709de00f20fb200820032009b
:100e50000243e80080003200c729de00f30fb20031
:100e60007d0032000343e8007b003200f107b2004e
:100e70000170a000f507b2000570a000c708dd00f2
:100e80004903de00868070004700dd00c72add00d0
:100e90004923de00868272004722dd0003055100ef
:100ea0000403500085835800030031000000400017
:100eb000818048000a05e9008c1f78008a9fbe00e7
:100ec00004005000858058000402420085824a00d8
:100ed00000004000818048000005eb000004be00d7
:100ee0006033b8000406be000d48e1005600310032
:100ef000050009004dccd8000c01b8000d02b80067
:100f00008481410060824a008283530003045c00b4
:100f100084845c0060055d000a00e00025003a0062
:100f2000800578000d40e10049003100880078001c
:100f300007007800050009004d88d8000c01b800b2
:100f40000d02b8008481410060824a0060031100f4
:100f500083835b0004045c00e0845c000900e00023
:100f600021003a004f01be000300e0002b003200d8
:100f7000e3016000070673008c81710001003200fc
:100f8000640070004200de004e5edd000c00700068
:100f9000c258de0001e0a00083010700cf01780005
:100fa000818071004f06be004f05be004f04be0099
:100fb000000006008c8343000d044c00e0844c00cc
:100fc00060054d000000e9000a00e000d4ff320097
:100fd0008c8343000d044c00e0844c0060054d0000
:100fe0000000e900ceff37000c0343008d834b0067
:100ff00060044c00e0844c000000e9000900e000bf
:10100000d8ff32000c0343008d834b0060044c007a
:10101000e0844c000000e900d2ff37004200de000f
:101020004e5edd000c007000c258de0001e0a00042
:10103000cf0178000300e000daff3200600010000a
:10104000e0801800d7ff3700f0ff2f00aaff37001d
:10105000f0ff2f00b9ff37000404be002f01070086
:10106000870678000004fd008104fd002b010700c5
:10107000078366000678a300030032000960a7001a
:101080000800be002c0037000d78a30002003200db
:101090000800be00280037000778a30026003a00a9
:1010a00001f0a10009f0a1000668a30003003200ce
:1010b000f1ff2700f0ff2f00baff37000d68a300f3
:1010c000030032000800be008c807000b5ff3700be
:1010d0000768a30007003a000648a3000300320097
:1010e000f1ff2700f0ff2f00aeff37000d48a300ef
:1010f000030032006000b8008c807000a9ff370048
:101100000748a3000400320001f827000000200077
:101110008c807000a3ff3700760107000004fd00fb
:101120008104fd0002057800720107000802be007c
:101130008a01780059ff37000160a00012022000e8
:101140009285880097ff37000100e000120032000e
:101150000500e00010003200889fbe008a9fbe009c
:101160008c9fbe000006eb0001f8a30003003200d4
:1011700060001000e08018000cf0a00005f8a3004b
:101180000300320060021200e0821a000cf0a2009c
:101190008005eb0041ff37006000b8000200050049
:1011a000038368000700280007036300470ade0086
:1011b0000480a100c71ade000580a100f70f2000ff
:1011c0000720e100420032000728e1004000320021
:1011d000889fbe008a9fbe008c1f7800f107b20076
:1011e000f307b2000400e000640032000170a000c8
:1011f0000500e000680032000370a0008505420091
:10120000eb07b1000204b8000302b8008484440074
:1012100060854a00020ab800848444000a854a00b6
:10122000030ab80004054500040033000804d00098
:101230008984d2000a85d2008b05e9006158e1005b
:101240003d00350002102000090161000308200064
:1012500089816100f7072000878364000886730096
:10126000c84cde00c853dd00878474004855de009a
:101270000300e00006003200820376000400320022
:101280008904e80060054d000a88a3000c003a00bc
:10129000f70f20000758e10044003d000a70a1004c
:1012a000c75ddd000a8575008a00730009007800bb
:1012b0004f0678004f05be004f04be000000060038
:1012c0000a05d1008984d3008b05e800f0ff3700c0
:1012d000881f780006047800900007000702780055
:1012e0000001fd008101fd008c00070087027800ed
:1012f000850372000778a300050032000001fd009d
:101300008101fd009f0007004f04780000000600e7
:10131000850372000748a30003003200f0ff2f008e
:10132000f1ff2700f8ff37000000200001f8270038
:1013300088807000f4ff3700880178004848dd009d
:10134000808171004848de00c850dd000100700057
:10135000c850de00060478000b0178001600070074
:1013600088807000d2ff37000500e00005003200e1
:10137000170020003a0007009dff3700810370002e
:10138000f9ff3a00860078004f0678004f05be004e
:101390004f04be000000050083037100f9ff320016
:1013a000270020002e00070094ff370001f82700d7
:1013b00086807000f4ff37000100e0002600320054
:1013c000610111007810e10023003c006022b800a8
:1013d0007010e10004003500800278000100780000
:1013e0008000eb00700151000200e00009003400b1
:1013f00070031100062add00822ade008603dd006c
:10140000878272000200de00860bdd00070070009c
:101410008208de0084817100f4ff270004826200ec
:1014200084817100040028008482620061026000ef
:1014300005f0a600000006000482710007003200db
:101440000000e800e0804800000006000002be0046
:101450006000b800efff37006000b8000000060031
:10146000889fbe000004eb006138e10016003a00de
:101470000100e00008003a00c800de004800dd007e
:10148000880020000100e00003003a00c800de00f0
:101490004800dd00680444008184cf00e9845400e2
:1014a000060034008908dd00f08314008703de00a5
:1014b000878070000900dd00090444006102140007
:1014c0004f04be00000006000300e00008003a00e0
:1014d000c811de004811dd00880020000300e00094
:1014e00003003a00c811de004811dd006804440022
:1014f0008384cf00e9845400060034008919dd009c
:10150000f08314008713de00878171000911dd006c
:1015100009044400e1021400e9ff3700270020001d
:1015200001f0a70017002000470bde00f60fb20005
:10153000040032000643e8000a0032004702b3000c
:101540000000060001037800f607b20006037000f1
:1015500002003a000703b300000006008702b30050
:101560000000060001037800f607b20006037000d1
:10157000020032000770a000000006000760a00013
:10158000000006000478a300040032000578a300e0
:10159000030032000168a30001003a000200be000f
:1015a0000160a000000006008101700027003200e9
:1015b0008002eb0001f8a30003003200600010007d
:1015c000e080180015002000f4072000020242000d
:1015d00020003400f7032000870360000604200089
:1015e0000003630002082000000161004700de00e4
:1015f000c909dd0000807100c708de000600e000b8
:101600000800320087037100060032001000b000ad
:101610000180b0000188a30002003200c108de0092
:101620000402e800f107b200f30f20000320e100fc
:1016300003003d004722dd008100720029003700d1
:1016400001f827000000eb00260037006000b8001a
:1016500000000600680212007f20e1000200340052
:101660006000b8001f0037006011b8007020e10072
:101670000400350080017800010078008000eb0054
:10168000700252000400e00009003400f003120070
:101690000719dd008419de000703dd008681710073
:1016a0000400de00070bdd00060070008408de0089
:1016b000f7ff27008383630087037100060028007b
:1016c00003036300070032000700e00003003a0054
:1016d0006101600002817300020032001000b0005e
:1016e0000180b0000500a6000000060001f0a00087
:1016f000000006004f0ade004709de00f107b200d5
:10170000f20fb2000b003200f207b1000170a0002e
:10171000c708dd00c901de00838070004700dd00de
:101720000400a6000000060060001000e080180021
:1017300000000600810f700001003a000000060062
:101740008182cf000500e00010003e008082cf00c3
:10175000ee8242007028e1000400390007003e00dc
:10176000800078000000eb000e003700708312004c
:101770008600de000500dd000a003700708352009d
:101780008600dd000000eb0006003700e282520018
:101790008508dd00708312000603de00868070007d
:1017a0000500dd007507b0000501ea000400a60091
:1017b0000000060060001000e08018000000060035
:1017c000881f7800030478000300e00007003d0054
:1017d00060001000e080180060011900e08119002d
:1017e00002003b0001f02d00030037000400070059
:1017f00008f0a70001f0a0004f04780000000600e8
:10180000889fbe008a9fbe000082700004027100a3
:1018100004827100260032000004be000200be00f7
:101820006011b8006b092000950220000182cf00f2
:101830000a0039000541b1000082cf0007003900dd
:101840000541b1000982cf00040039000541b10013
:101850000882cf00010039000541b1000542520065
:10186000120032000a003b008281710061016400b5
:101870008100d1000080d3008984d3000884d30084
:101880008b05e8000442e800f7ff3a000700370044
:101890000804440089844c0000004800818048000e
:1018a0008b05e9000442e900f9ff3a000300070054
:1018b0004f05be004f04be0000000600810020005e
:1018c000618055000b003d000b00200061fe2f00e1
:1018d0000100e1001d00340082817100610164009b
:1018e0008904d1000884d3000000e800faff3a0020
:1018f00071002000610064000300700002006000bd
:101900000900320061044400e0844c000988a5000d
:10191000050032008b05e8006808e10002003a008b
:101920008904d1000884d300f20f20000258e1009e
:1019300005003d00c75ddd00f907b2008980750034
:1019400008007800000006000bf827008b007800e4
:10195000000005000000fa0068815700cfb897002a
:10196000808c800010007800660507000080fa0077
:1019700000000600b10007000b010700db030700b1
:10198000110407008d040700b5040700880507004f
:10199000fa050700a50537000000fa006881570026
:1019a000cfb89700808c80001000780055050700a4
:1019b0000080fa0000000600a0000700cb0307002b
:1019c000010407007d040700a5040700eb050700dc
:1019d000960537000000fa0068815700cfb89700dd
:1019e000808c800010007800460507000080fa0017
:1019f0000000060091000700bc0307006f04070009
:101a000097040700f0030700dc050700870537008f
:101a10000000fa0068815700cfb89700808c8000e2
:101a200010007800370507000080fa00000006006b
:101a3000e50337008001780002003700b1597800d3
:101a40000201e9000200e000fcff3a00000006008d
:101a5000889fbe008a9fbe00800478000200e000dc
:101a60005b00320001407800814c780082814400a4
:101a7000f1f99f00e20f51005500360091449800a3
:101a8000a1449800e1f99f00d1f99f00e60f5100b1
:101a90004f003600b1449800c1f99f00e80f510093
:101aa0004b0036000905ea00630565000a8444001e
:101ab0000a055100c1ff2f00010565000080fb00f1
:101ac0008000eb00121020001310200064090700b2
:101ad000008cbe000a01440060b99f0071b99f00ec
:101ae000e80f55003a0036002004980031049800b1
:101af000400498005104980020b99f0031b99f001c
:101b000040b99f0051b99f00f80f550030003600d2
:101b10006004980071049800000c9800110c980063
:101b2000200c9800310c9800400c9800510c980043
:101b300020b19f0031b19f0040b19f0051b19f0083
:101b400060b19f0071b19f0000b99f0011b99f0063
:101b5000640164007801410002044400020555005c
:101b60006011b8000203be000002be000403be0004
:101b70006022b800000072008180720002017300d0
:101b80008381730010003700009cbe000294be00e9
:101b9000400498005104980062049800730498006f
:101ba000000c9800110c9800220c9800330c98003f
:101bb000400c9800510c9800620c9800730c98002f
:101bc0000a02b1000802b000ff0f5500eeff3e0010
:101bd000090078004f05be004f04be00000006005b
:101be000818c80009100780055083700818c80003e
:101bf0009100780009080700110020000000e000b3
:101c000005003500808c800090007800a000200046
:101c10004b080700cf00de000100ea0000000600cc
:101c2000000006006019210000000600fdff07000b
:101c3000a08c8800908c880000000600ec8747008c
:101c4000889fbe008a9fbe008c9fbe008e1f7800ba
:101c5000000678000104780018079000280590001d
:101c600098067800cdb79f00b80590003202be00fc
:101c70002203be000400be000601be004f18de00b5
:101c80006011b8008000eb00d0b79f00e1b79f0063
:101c9000f2b79f0083bf9f00800478000900e00036
:101ca000060032006000b8006011b8000402500065
:101cb0008582580006035900878359000e00e00012
:101cc000020035000d10a100cdb79f000900e00013
:101cd00005003a004fb097000028a30002003a0028
:101ce0000038a300020032008a00e900010037003a
:101cf0008a007800f8815700a200200008007800d0
:101d00005b0307000900e00003003a00cfb0970032
:101d10000128a300080032000000e900008145000e
:101d2000b1c2b3000900e00001003200d1c2b3002b
:101d300001497800060037000138a3000400320092
:101d40000000e9008080450002c2b30082487800ac
:101d5000480190000201e900000151008080450027
:101d60004fb297008a0178000c0078004e050700fa
:101d70009c0090000188a3000400320098009000ad
:101d8000810f500001003d00010078004f077800ee
:101d90004f06be004f05be004f04be00cf00b1008d
:101da00000000600000006002f04b000889fbe005f
:101db0008a9fbe008c9fbe008e1f7800b09f9f0040
:101dc000a1a79f00a37f9f0011007800d0a79f00cc
:101dd00091009000f1a79f00afa19700a301900090
:101de000c3a79f002fa2970044029000a49f9f00ca
:101df000afa29700350790003204be002205be0056
:101e00006022b8006033b8000800be000a01be00be
:101e1000290807000000e00003003d000bf0a200cd
:101e2000d0c2b300040037005fa397000628a300c8
:101e300008003200b0c2b300004f7800cfa3970073
:101e40008703e90087af9f0010002000e0a79f00f4
:101e50000f003700dfa097000138a3000800320010
:101e600000c2b300004f78004fa197000201e900c3
:101e700082af9f0013002000e3a79f0004003700fb
:101e80004fa2970084af9f008002eb00e5a79f0060
:101e90000800be000a01be00c2ff0700f4ff2f00c9
:101ea000f5ff2f00f6ff2f00f7ff27000402600068
:101eb0008582600006036100878361006000b800ce
:101ec0000200200003ff27000020e10001a8e1003c
:101ed00002b0e10003b8e10010003a002f7b970048
:101ee0008600fb001104b100efa397000700470034
:101ef000f98f500002003e0021262100010037002a
:101f0000612621008f070700602621009407070043
:101f1000efa0970001014000140037000020e1000d
:101f200001a8e10002b0e10003b8e10012003600b0
:101f30002f7997008200fb001104b100efa19700f8
:101f400003004700f98f500002003e00a126210047
:101f500001003700e12621007a070700e026210072
:101f60007f0707006fa29700040140005fa297005f
:101f7000cfa19700490237006022b8006033b80053
:101f80000800be000a01be00cb0707000000e00009
:101f9000680032006000b8000200200003ff230048
:101fa000d0af9f00e1af9f00f2af9f0083b79f00cb
:101fb0008006eb000802be000a03be0094b79f0033
:101fc000a5b79f00b6b79f00c7b79f0007003700af
:101fd0008d06e8000800be000a01be00d0af9f00d9
:101fe000e1af9f00f2af9f0083b79f006022b8006f
:101ff00006002000470224005fa89700efa8970082
:102000007fa997008fb197001b0907000004be004d
:102010000205be000002be000203be001fb0970012
:10202000afb097003fb19700cfb19700a20707006c
:102030000000e000e6ff3d000006eb005fac97000b
:10204000efac97007fad97008fb597002500370064
:1020500040ed2f00808f560019003d000c00e0007d
:1020600016003a006022b800060020000735240060
:102070001fb09700afb097003fb19700cfb1970066
:10208000fd0807000002be000203be0094b79f00d7
:10209000a5b79f00b6b79f00c7b79f006022b800e2
:1020a00006002000073524000800be000a01be001b
:1020b000f10807000004be000205be001c0020005d
:1020c0006022b80006002000470224000800be007d
:1020d0000a01be00390807000004be000205be0068
:1020e0008d06e9000802be000a03be001fb097007b
:1020f000afb097003fb19700cfb197006e070700d0
:102100000000e000d2ff35000800be000a01be005a
:10211000d0af9f00e1af9f00f2af9f0083b79f0059
:102120001fb49700afb497003fb59700cfb59700a5
:10213000080037006022b8000600200007ff2300d7
:10214000d4af9f00e5af9f00f6af9f0087b79f0019
:102150008006eb00af7a97000500fb00220707001e
:10216000b07f9f007fa39700600020000600e00082
:10217000010035007fa0970071c6b300bf7b9700b8
:1021800081cf53000a003a00ffa097000100e00051
:10219000cb013200cb0137008d0f5000cf013c0046
:1021a00090b79f0052c6b300e2cf9f001e003700d9
:1021b000bf799700e3cf9f000200370064c6b300e9
:1021c000e4cf9f000000e80090b79f0060c6b30016
:1021d000efca970080cf520013003a000d00e000d4
:1021e00008003d006000b8000200200003ff23004b
:1021f000d0af9f00e1af9f00f2af9f0083b79f0079
:102200008006eb0061c6b300e1cf9f0070c6b3004b
:102210003f799700804f5100030032009fb1970033
:102220008d81410093b79f005faa9700efaa9700a6
:102230007fab97008fb39700d4b79f00e5b79f009f
:10224000f6b79f0087bf9f000800be000a01be00ce
:1022500090af9f00a1af9f00b2af9f00c3af9f00a0
:102260000006eb000802be000a03be00e49f9f00c8
:10227000f59f9f0086a79f0097a79f00310037001a
:102280005fb29700efb297007fb397008fbb9700c4
:102290001fa89700afa897003fa99700cfa9970064
:1022a000c6070700200b07000004be000205be00a1
:1022b0002a07070080027800b5a79f005fb2970049
:1022c000efb297007fb397008fbb97000800be0066
:1022d0000a01be00680807001faa9700afaa97006e
:1022e0003fab9700cfab9700630707000002be002b
:1022f0000203be0007f0a20094af9f00a5af9f00ad
:10230000b6af9f00c7af9f006022b8000600200054
:10231000470224005fb09700efb097007fb19700ad
:102320008fb99700a50707000002be000203be0098
:10233000d4b79f00e5b79f00f6b79f0087bf9f0007
:102340000c06e8009fb29700850f5600ccff3500c1
:102350006f9c9700ff9c97000fa597009fa5970083
:102360006022b80006002000470124005fb09700fb
:10237000efb097007fb197008fb997003e08070034
:102380000002be000203be00d4b79f00e5b79f0065
:10239000f6b79f0087bf9f001fa89700afa89700c0
:1023a0003fa99700cfa99700c30607000000e000ef
:1023b0000f0035005fb29700efb297007fb3970030
:1023c0008fbb97001fa89700afa897003fa9970061
:1023d000cfa99700b80607000000e00011003a00fe
:1023e000bfa297000508a300080032000d003700c7
:1023f0006000b8006011b800d0b79f00e1b79f003f
:10240000f2b79f0083bf9f00060037006022b8002c
:102410006033b800d4b79f00e5b79f00f6b79f00c0
:1024200087bf9f005fb29700efb297007fb397001e
:102430008fbb97000800be000a01be00140707000a
:102440000002be000203be0094af9f00a5af9f0034
:10245000b6af9f00c7af9f006022b8000600200003
:10246000470224005fa89700efa897007fa9970074
:102470008fb19700000807000004be000205be00ef
:102480000002be000203be001fa89700afa897007d
:102490003fa99700cfa997008c0607000000e00035
:1024a000090035008d06e80060c6b300efca97004a
:1024b00080cf520008003a001fb397000603e800df
:1024c00096b79f00110037005fac9700efac970004
:1024d0007fad97008fb5970050c6b3006fc99700c6
:1024e000804f510009003a000802be000a03be00f6
:1024f000d4b79f00e5b79f00f6b79f0087bf9f0046
:102500008002eb00d5af9f00070037000800be0037
:102510000a01be00d0b79f00e1b79f00f2b79f004d
:1025200083bf9f00ddaf9f006fa697000001eb0007
:10253000b2a79f00c29f9f00e29f9f009d9f9f00a8
:10254000680037005fb29700efb297007fb3970043
:102550008fbb97001fa89700afa897003fa99700cf
:10256000cfa99700150707006f0a07000004be00f7
:102570000205be0079060700e90f50000100340093
:1025800090002000dfa197000348a3000c003a0050
:102590000000e0000a003a0071c6b3003f7a9700dd
:1025a000814f520006003a00dfaa97000500e000c4
:1025b00003003d003fa397008606e8002100370096
:1025c000cf9b97000700e0000c003a00dfa89700bf
:1025d0000100e00009003d000c014700e1c2b3002a
:1025e000014978000c06e8000fa997000201e900f4
:1025f00082af9f0013002000c39f9f000c01470083
:10260000bfa697000300370001c3b300015978004b
:102610008d06e9000d00e000fbff3a003fa29700a5
:10262000040646008c00470005c3b30085484000ff
:102630000c06e8000480ea000fab9700000343009b
:1026400086af9f005fb29700efb297007fb397000d
:102650008fbb97000800be000a01be008607070076
:102660001faa9700afaa97003fab9700cfab970088
:10267000810607000002be000203be0007f0a200b0
:1026800094af9f00a5af9f00b6af9f00c7af9f005c
:102690006022b80006002000470224005fb09700c7
:1026a000efb097007fb197008fb99700c30607007e
:1026b0000002be000203be00d4b79f00e5b79f0032
:1026c000f6b79f0087bf9f00dfaa97008502e90049
:1026d000d5af9f006f9b97000603e800e69f9f0021
:1026e000bda79f00ef9b97001fb09700808f5300fe
:1026f00005003d00afa0970041009000650050002c
:10270000800f56008fff39009f9e97004f999700ca
:102710000200e00007003a00dfa197000348a30091
:10272000040032000c004700e1c2b3000148780009
:102730000c06e8000c0047000048eb0051c6b3004f
:102740006fca9700814f520036003a00af9a970047
:102750008500e900010147000049eb008001eb0022
:102760000d00e00002003d008d06ea00130020008d
:1027700022002000810378008faa970000047800cf
:102780000b0037008103780007034700a4002000f6
:10279000050009008406d800010278008006780050
:1027a00000c3b300004b42000201e9008502e900ca
:1027b0008700e9000d00e000f2ff3a000200e000af
:1027c000f0ff3c0085af9f00080078000102470041
:1027d000b2c2b3000300e00001003200d2c2b30075
:1027e000024a78000101e90082004700af799700b2
:1027f0000302fb001404b10053c6b300f90f5200ea
:1028000001003e0053c4b300834878000faa97002c
:102810000482e90084af9f00820f560001003d0052
:1028200048050700dfa2970063806200e20f5000b6
:1028300015003a000fab97000600e00012003400cc
:102840000e00780046050700060037008fab9700a2
:1028500087004700808040000001470092487800d0
:102860000000e900efa09700810f5000f7ff3d0046
:10287000010047000fa997000103200074fc070026
:102880000001eb00c2a79f000e007800340507008e
:102890005fa29700cfa19700000178008e0078001a
:1028a0003f989700800207004f0778004f06be0050
:1028b0004f05be004f04be002f04b100000006000b
:1028c00010002000e48f460033fe3d0090b79f00cb
:1028d00053c6b300e3cf9f0053fe37000d00e00066
:1028e00036fe350090b79f0046fe37000200fa0022
:1028f000889fbe008a9fbe00800578000104780092
:1029000002007800180190002805900098007800d7
:10291000b1bf9f00b80490000200e0000200350043
:102920000110a100b1bf9f00ea8157008200200082
:102930008a0078003002be002003be000800780044
:102940004b0007003fb99700f0006100040032001f
:102950000000e9008080440002c3b3008248780090
:102960003fb99700e8006100040032000000e90070
:102970008080440002c2b300824878004801900081
:102980000201e90000015100808044003fba970035
:102990008a0178000b007800430207009b0090003a
:1029a0000188a3000400320098009000810f5000bd
:1029b00001003d00010078004f05be004f04be003d
:1029c0000080fa0000000600ea874700889fbe00ea
:1029d0008a9fbe008e1f78000004780003007800f4
:1029e0007287570084e2260055c72600049fbe0068
:1029f000c3962200030f78006c875700004feb004e
:102a000011059000a1049000910578000200e000fb
:102a10000200320002077800010037007287570079
:102a20000000e00002003a000e007800cc0407002d
:102a30000a00e000030035008a0f50000100360054
:102a40000a0078000b027800890178000001780004
:102a50008e00780008007800130207004f07780006
:102a60004f05be004f04be00af00b10000000600dd
:102a7000f4874700889fbe008a9fbe008c9fbe00df
:102a80008e1f78000605be000404be0081bf9f00b3
:102a900082b79f00f3b79f00b0009000e1b79f009e
:102aa0001301780092b79f009006900040009000bc
:102ab0000000e900000678000d00e00001003d0084
:102ac0001d002000efb19700008041000048eb009e
:102ad0001e0020001f0037000c06e9000fb0970011
:102ae000cf80de006109b900a0b79f00b1b79f0099
:102af000c2b79f00d3b79f000203be000002be0012
:102b00000800be000a01be001c080700000778008c
:102b1000efb097000c80400003c3b30003484700a8
:102b20008d06e9000fb897000000e90080bf9f0004
:102b30002fb29700bfb297004fb39700dfb3970053
:102b40000800be000a01be00050807000205be001d
:102b50000004be000c00e0000d003400e00f540043
:102b6000e08f5c00e00f5d00e08f5d00daff3a006f
:102b70000d00e000d8ff3c008fb897000100e00096
:102b8000030034001fb197000218a300d2ff3a00df
:102b90000e00e00002003a00ffb197001340a100d0
:102ba0000c0078004f0778004f06be004f05be00ae
:102bb0004f04be004f01b100000006000200fa0001
:102bc000889fbe008a9fbe0000057800010478003f
:102bd0000200780018019000a80490009800780086
:102be000b1bf9f00b80590000200e0000200350070
:102bf0000110a100b1bf9f00ea815700a200200090
:102c0000890078003002be002003be000800780072
:102c100097ff0700480190000201e9000001510000
:102c2000808045003fba9700890178000a0078004b
:102c30009d0107009a0090000188a3000400320063
:102c400098009000810f500001003d0001007800c5
:102c50004f05be004f04be000080fa0000000600d1
:102c6000fa874700889fbe008a9fbe008c9fbe00e7
:102c70008e1f7800800478000104780082057800b7
:102c8000180190002805900018077800b8009000ff
:102c90000200e000020035000e10a1000100370024
:102ca0001200200070006700e0b79f0009003200aa
:102cb0003b02be002b03be00e00f5200e08f5a0023
:102cc000e00f5b00e08f5b00020032008a86e900c3
:102cd000010037008a067800e8026700f5b79f0018
:102ce000010032008d06e9003b02be002b03be004e
:102cf000e4af9f00f5af9f0086b79f0097b79f0096
:102d0000480690000c06e9000c8040000048eb00eb
:102d1000efb297007fb297008903780081047800b2
:102d2000d8af9f00020478008bbf9f008a0578000f
:102d3000034578002b0037000c06e9006fab9700c5
:102d40006f006300e90f500002003c000003b00078
:102d5000010037007005b0000a03fb001604b10043
:102d6000f90f53000c003e00000378000650a0004d
:102d70001606b100f90f530007003e00b4b79f00dc
:102d8000a5b79f00c7b79f001e040700cfb39700e9
:102d9000afb297003fb297000c834400004b78001d
:102da0000804e9008d06e9006fa89700ffa89700c6
:102db0000fb197009fb19700460020008301d1001a
:102dc0000281d3008180d3000080d3000603e90094
:102dd000faff3a00e0af9f00f1af9f0082b79f007b
:102de00093b79f00e10f56000f0034006fa89700c3
:102df000ffa897000fb197009fb19700e00f500018
:102e0000e08f5800e00f5900e08f5900caff3a00e8
:102e10000800e000c8ff3c000d00e00002003400a4
:102e20000e18a300c4ff3a0089007800f4b79f0091
:102e3000870478005fac97008a4178000b05780022
:102e40008fbd97000500e000120032003b02be007b
:102e50002b03be00e4af9f00f5af9f0086b79f0035
:102e600097b79f00e00f5200e08f5a00e00f5b0021
:102e7000e08f5b00070032000c06e9000c80400088
:102e8000034878000c06e9000c80400002c3b30040
:102e900002487800ffb297000500e000040032000d
:102ea0000c06e9000c80400002c2b3000248780022
:102eb000480190000201e9000c0151008c804000a3
:102ec0000e0278008a01780009007800f6000700f9
:102ed000990090000188a30004003200980090003f
:102ee000810f500001003d00010078004f0778007d
:102ef0004f06be004f05be004f04be00af01b1003b
:102f0000000006000200fa00881f78000004780024
:102f1000e2bf9f006481570008007800a402070008
:102f2000980090000148a300010032000080eb00ef
:102f30004f0478000080fa0000000600889fbe0061
:102f4000000478004800900082047800808f5400cc
:102f500001003600800478000901780058009000d4
:102f6000b4fa07005800900009004000500498008f
:102f7000c800900089845000490498000048eb0084
:102f80004f04be00000006001000780064f7370010
:102f9000900190000388a30001003200e7ff370092
:102fa0000348a30001003a00f7ff070000000600f5
:102fb000881f78000004780000082000808f5000ef
:102fc0001700350010082000808f50000b003400df
:102fd00030082000808f500011003a0092007800e5
:102fe00068805000000978003002be002003be0057
:102ff000049cbe000694be000700370092027800d1
:1030000064805200000978001000be00b40307007d
:10301000009cbe000294be0010002000010037009a
:103020000000eb004f047800000006008408200038
:10303000848f50001d0032000d003c001408200059
:10304000848f50002700320002003c00040820005a
:103050000400370024082000848f50003400320020
:1030600044082000848f500043003a0036003700a7
:10307000040a2000848f50002700320004003c0026
:1030800004092000848f50003b003a0028003700dc
:10309000020c2000828f50002f003200020f20000f
:1030a000828f500034003a002b0037009380e900f3
:1030b0000200e00005003200810978001102fb00e7
:1030c000cfa2de00612bb90028003700810978000b
:1030d000114278000482fb008002eb006033b800ec
:1030e0002200370013027800e40052000200e000e2
:1030f00005003200810978001102be004fabde00ee
:103100008603780019003700810978001102be009b
:103110006033b800150037009380e900810978001a
:1031200011027800cfa2de00612bb9000f0037003a
:1031300093027800e8805200810978003102be00d5
:103140002103be00090037009380e9000200e0007f
:1031500002003200f1ff37009380e9008109780016
:10316000110278008002eb006033b8000498be00c2
:103170000690be0010000500000005004408200075
:10318000848f50002500320008003c001408200005
:10319000848f50001400320024082000848f5000d7
:1031a00024003200040820000c003700040920002d
:1031b000848f50001f00320004003c00840820006f
:1031c000848f500024003a000e003700040a2000cb
:1031d000848f500011003200040c2000848f5000b6
:1031e0001d003a000d0037009380e9008109780046
:1031f0009100780001087800cf91de008288be003f
:10320000140037009380e90081097800910078006c
:1032100001087800824878000e0037009380e900aa
:103220008109780091007800010878008208780010
:10323000080037009380e900810978009100780048
:10324000010878006112b900612bb9008498be00b2
:103250008690be001000050000000500889fbe009b
:10326000000478004800900082047800808f5400a9
:1032700001003600800478000901780058009000b1
:10328000ecf9070058009000090040005004980035
:10329000c800900089845000490498000048eb0061
:1032a0004f04be0000000600f2874700889fbe0062
:1032b0008a9fbe008c9fbe008e1f7800800478001d
:1032c0000105780002047800830578006107620038
:1032d00002003a008b0f5400080039000801780002
:1032e0008a0078000900780029ff07008b0f54003e
:1032f00002003900880578001e0037000886550056
:103300000c017800f00f5600010036000201200089
:10331000010220007e805700cdf907008c0678005e
:103320000500370002012000fe80570009007800e8
:1033300017ff0700f0865600ef8f5600f9ff3e009a
:103340004461de0000ff2f008091b9000c014100b4
:10335000fe805700090078000dff07000e00e00016
:1033600004003a00080178008a007800090078001b
:1033700007ff07000b0078004f0778004f06be00dc
:103380004f05be004f04be002f01b1000000060033
:1033900000000500000005000000050000017800a5
:1033a0000040eb008080fb0081804000a3232100cf
:1033b00081814100134278000404e00004003a00d7
:1033c000b023210081004000114078000000060079
:1033d00092017800934f520005003a00b02321007b
:1033e00081004000114078000309e8000100370027
:1033f0000040e800ea4f5000eaff360000000600f7
:10340000f6874700889fbe008a9fbe008c9fbe0043
:103410008e1f78000005780001047800830578008d
:10342000040678000000eb00c0b79f008080eb002e
:10343000d1b79f00e0b79f00f2b79f0000082000bf
:1034400080bf9f0098007800010078008004eb00a6
:10345000010037008904e800304178000204e000f0
:103460000300320053c2b300834f5100f9ff3a000a
:103470000900e00004003200090178000a00780029
:10348000c3fe0700188c44001807780050c2b30030
:103490009e4f10003f013a000e07e8000e0c780026
:1034a00010003700cfb097000100a0000b003700dc
:1034b000cfb097000110a00008003700cfb09700f0
:1034c0000120a00005003700cfb097000130a00018
:1034d00002003700cfb097000140a000c1b79f00a5
:1034e000000ce8001800780090407800b2c2b300e9
:1034f00082cf5000f1ff320007003c0002c2b3004f
:1035000082cf5000f0ff320032c2b30082cf5000b1
:1035100007003a00efff3700d2c2b30082cf50005d
:10352000e0ff320002c3b30082cf5000e0ff320060
:10353000a2c2b30082cf50000d003a00000ce80098
:103540001c80e900000e780010007800e0b79f00b2
:103550000000e0000f003d00cfb097000100a20086
:10356000c1b79f000000ea00e0b79f0009003700e4
:1035700084010700e0b79f0001003700000ce8005d
:10358000180078009000fb000103b100e98f5000a3
:10359000faff36004fb097000008a3000200320087
:1035a0000010a100c0b79f0018007800e1c2b3006e
:1035b00090cf100016003a008000eb00d1b79f00ba
:1035c0000000e800000c7800a1c2b30090cf10000a
:1035d00006003a00000ce8001c80e900000e7800ac
:1035e00010007800d0b79f00090037006501070080
:1035f000d0b79f0001003700000ce80018007800e9
:103600009000fb000103b100e98f5000faff360083
:103610000800780061ff07008046780018007800f5
:103620001000fb00f001070091062000810f500000
:103630003800320012003c0041062000810f50008b
:10364000340032000a003c0011062000810f5000b7
:103650002000320031062000810f5000a00032000f
:1036600051022000810f5000bc003a00b400370026
:1036700071062000810f5000b8003c008800370020
:1036800001072000810f50005c00320007003c0061
:10369000e1062000810f50007a003200f106200080
:1036a000810f5000ad003a0039003700510720006b
:1036b000810f50002700320081072000810f500049
:1036c0004200320031072000810f5000a3003a0071
:1036d0008f0037008d80fb000c01780000fe2f006a
:1036e0000f00400032fe07000000e000a80032009a
:1036f00018007800000ce8009041780002fe2f00ce
:103700000f014100f88057000a00780021ff0700f0
:103710000e0037008d80fb008c0178001200200025
:1037200000fe2f000f00400040fe07000000e000f8
:1037300097003200180ce80002fe2f000f01410034
:10374000f88057000a0078003cf9070080844400a4
:10375000900037008d80fb008c0178000001eb00a9
:1037600000fe2f000f00400030fe07000000e000c8
:1037700087003200180ce80002fe2f000f01410004
:10378000f88057000a0078000cfd0700efff3700b3
:103790008d80fb008c0178000001eb0000fe2f0003
:1037a0000f00400021fe07000000e000780032001a
:1037b000180ce80002fe2f000f014100f8805700ae
:1037c0000a00780049fc0700e0ff37008d80fb000d
:1037d0008c0178000001eb0000fe2f000f0040007c
:1037e00012fe07000000e0006900320018007800b7
:1037f000000ce800904178001c0037008c01780034
:103800000001eb00010f200000fe2f000f00400020
:1038100006fe07000000e0005d003200180ce80022
:103820000fb097009fb097002fb19700bfb19700de
:10383000e00f5000e08f5800e00f5900e08f590072
:1038400009003a00cfb597006fb4970020232100fc
:10385000430107000b02780088017800000178001e
:10386000212321004700370083c7b30002fe2f0049
:103870000f014100f88057000a007800f8fc0700ab
:10388000b2ff37000b8144008d80fb008c01780073
:1038900000fe2f000f00400038fe07003c003700fc
:1038a0008d80fb000c01780000fe2f000f0040000f
:1038b000bffd07000000e00035003200180078006e
:1038c000000ce8009041780002fe2f000f0141003b
:1038d000f88057000a00780033f907009bff370093
:1038e00000c8b30080cf560029003a00180ce80049
:1038f0001c80e900000e780010407800e0df9f0097
:1039000013002000e2fd2f000f01410008003700e6
:1039100000c8b30080cf56001d003a00180ce80024
:103920001c80e900000e78008001eb001001780097
:10393000f88057000a00780023fc070083ff370057
:1039400000c8b30080cf560011003a00180ce80000
:103950004fb29700efb19700080037000e0c7800c7
:103960000000eb00c0b79f00e0b79f000080eb00b5
:10397000d0b79f000002eb00840178001200200005
:10398000812321000a00780047fe07006fff3700ff
:10399000180ce800090078004f0778004f06be00b9
:1039a0004f05be004f04be006f01b10000000600cd
:1039b0008200fa00889fbe008a1f78000005780008
:1039c00082047800c13f9f000004eb001000370024
:1039d0000902780088017800a2f72f000f0141004a
:1039e00081f72f008f8040000a00780084fe0700d6
:1039f00008004000880f500004003d00b004200083
:103a0000f09388000084eb00040037000004780085
:103a10004f3897001004e000edff3a0008007800ee
:103a20004f0578004f04be000080fa000000060039
:103a3000889fbe000004be000000eb000800e0000c
:103a400018003200180090000058a3000d0032004a
:103a5000d800900068009000808f50000900360068
:103a6000b80990000001eb0082007800080078009f
:103a700003000100d80090000080eb000100e0008e
:103a8000080032000000eb00200c98006004980051
:103a9000500498000900e00002003200180078008d
:103aa00096f407004f04be0000000600889fbe0089
:103ab0000004be000000eb000800e000250032001a
:103ac000180090000058a30011003200d8009000a8
:103ad00068009000808f500009003600b8099000ff
:103ae0000001eb008200780008007800030001006c
:103af000d80090000080eb000100e00015003200cb
:103b00000000eb00200c980060049800500498001e
:103b1000780a900008109000800f520006003100d3
:103b20000002520011002000cfa2de00612bb9007c
:103b300018007800650007000000eb0000149800f2
:103b4000700c98000900e0000200320018007800b4
:103b50006af407004f04be000000060080007800f1
:103b60001000200002022000828f5000040032006a
:103b7000e9805000e48f5000010036000000eb00a7
:103b800000000600889fbe008a1f780000057800ac
:103b90000a047800984478000805e8000900fb0052
:103ba000eeff07000000e000f9ff3a00b0c2b300ea
:103bb00080cf540005003200d0c2b3008000eb007b
:103bc00080cf540005003a00020037008000eb006f
:103bd00001003700110020000804e8000000eb009d
:103be00003003700ea00b900020050000003b000f3
:103bf0003801fb0003fd2f0082814100e98f510055
:103c0000f8ff36000100e00001003a000000ea0081
:103c10004f0578004f04be0000000600889fbe00dc
:103c20008a1f780080047800010578000900780078
:103c30004b000700000478008a0178000801780032
:103c400011002000090078000a00070080007800b9
:103c50000080eb00888f500001003a000000eb006c
:103c60004f0578004f04be000000060010007800e9
:103c70002bf43700889fbe008a1f780081047800eb
:103c80000204780089c5b9000900e00001003a008b
:103c90000004eb000a01780080007800030078003f
:103ca000b9fc0700800078008a8f500003003200c2
:103cb000050009008980d800000478000800780019
:103cc0004f0578004f04be0000000600a0fd2f0045
:103cd000f1ff2f003a0007004f89de0082017800d3
:103ce000000006000200fa0081017800e0ff9f005a
:103cf000930090000188a30005003200d3009000db
:103d0000805878000080fb00d10198000a0037003d
:103d1000120020008f80e900030078009afc070061
:103d2000800078000080eb000100e000020032001b
:103d3000eff897000180fb000080fa000000060009
:103d4000e8ff3700881f780000047800080078003a
:103d500037000700080078004f04780000000600d4
:103d600080007800040037003104e00002003a00cf
:103d70000000510000000600010178000108a300c6
:103d8000f9ff3a008101780031017800f4ef2f004b
:103d9000020242000281ea000201620004082800d7
:103da00004016100f7ff3200830078000101780010
:103db0003104e000fdff3a00000051000000060061
:103dc00002002f00f3ff2f00820f5000838f580056
:103dd000040036000000ea00f09388000080eb0049
:103de0008080eb0000000600f1fb2f008080400087
:103df000f98f500001003e000050a00000000600b6
:103e0000f9ff3700f1f92f0080804000f98f500052
:103e100001003e00f005b20000000600f9ff370087
:103e20000000060081f70700fdff0700fcff3700d8
:103e30000101780080017800008268000408a30076
:103e400005003200130037003240780080597800b6
:103e50000004e00014003200030278000208a3000e
:103e6000f9ff3a00030078000100370003187800da
:103e700082007800b2017800f5ef2f0083824200c3
:103e80000382ea000482620005082800050262003d
:103e9000f6ff3200000278003141780002587800c5
:103ea0000204e000fbff3a00040078000000060076
:103eb00000c0da00000006008f1fd1009103070048
:103ec0008f87e9000000e00000000600809feb0003
:103ed0008c0307008f87e9000000e0000000060067
:103ee00081037800490007000001be006000b800af
:103ef0000478a30013003a006220e10015003e00a0
:103f00000d0039008301d1000281d3008180d300ec
:103f10008301d1000281d3008180d3008301d100cd
:103f20000281d3008180d3000538b000c42add00af
:103f3000f300b2008381720007f0a70003f0a00035
:103f40000000060083ff2700020020006110b90076
:103f5000f9ff370003ff2700f7ff37001400fa00ce
:103f6000889fbe008a9fbe008c9fbe000004be00da
:103f70000205be00680047000a90be000890be001f
:103f80009b0307000070a7000bf0a1003043200046
:103f90009e02900080825200b0fe2f000028e100b7
:103fa00011003d00b0fc2f000028e1001500340096
:103fb0001e0990008e0890007e0090000501b00060
:103fc0000201d1008180d3000080d3008502e80087
:103fd000fbff3a000b00e000c0033b006000100054
:103fe000e0801800bd033700f0ff2f00f1ff27002d
:103ff0000b00e000b9033b00010028000000200096
:10400000b60337006000b800b4033700c70ade000b
:10401000f107b200f50fb20008003200e1cf420014
:10402000020032000170a00024000500810f700022
:10403000010032000408050044000500810f7000f3
:1040400002003a00140005008502e900000040006b
:1040500081c04800fcff3b000170a0002400050067
:10406000020ab900001bb9000200b800810042003a
:1040700081004300000006008c9fbe008a9fbe00a6
:10408000889fbe00ca0107000bf0a20004003700a1
:104090008c9fbe008a9fbe00889fbe00c40107009f
:1040a0000c48e1000b003a000c40e1000200320035
:1040b0008b010700400037008b066d003e00320088
:1040c0000af0a100f3012000f2ff2f006110b900f7
:1040d000390037000c40e100370032000940e100b0
:1040e000010036007e0107008a856d00cf5dde008d
:1040f0000b0575000006eb008804fd0089045400e0
:10410000010032007d0107000a04e00011003a00be
:104110000800e000280032000400400085804800cc
:1041200006014900878149000358a30018003200a6
:104130008301d1000281d3008180d3000080d300ad
:104140000c86d30001003900610676000804e800ff
:1041500018003700040050008580580006015900ff
:1041600087815900060031000af0a2000c06ea001f
:1041700060001800e080180060011900e08119005b
:1041800003003a000004eb000005eb000a003700d2
:104190000348a30007003a000c0646000000480050
:1041a0008180480002014900838149000804e90038
:1041b000f7ff3700af013700c90137008c9fbe0001
:1041c0008a9fbe00889fbe00790107000b056d0025
:1041d0000940e1000a003a000800e0000200320055
:1041e0000c40e10006003a000af0a1000c0478003f
:1041f000f3012000f2ff2f006110b9009d0037008d
:104200000c40e1009b0032000800e0009900320001
:104210000c48e10002003a000004eb000300370004
:104220000900e00004003a000c0478006000b800c7
:104230006011b8008f0037000348a30006003a0061
:10424000000040008180480002014900838149004c
:104250000804e900f8ff37000748a30006003a0009
:104260000402420085824a0006034b0087834b000c
:104270008904e900f8ff3700fd3f20008d845400d9
:10428000090454008a1f7800881f78000004780011
:104290008104780002057800830578006000b8008a
:1042a0006011b8000d042000050037000804440028
:1042b00089844c000a054d008b854d0008003100b3
:1042c0000404540085845c0006055d0087855d005c
:1042d0008381d2008d06d300f4ff3b000700370036
:1042e0000404440085844c0006054d0087854d007c
:1042f0008381d2008d06d300ecff3b00080444000c
:1043000089844c000a054d008b854d000800310062
:104310000404540085845c0006055d0087855d000b
:104320000281d2008d06d300f4ff3b000700370066
:104330000404440085844c0006054d0087854d002b
:104340000281d2008d06d300ecff3b00080444003c
:1043500089844c000a054d008b854d000800310012
:104360000404540085845c0006055d0087855d00bb
:104370008180d2008d06d300f4ff3b000700370098
:104380000404440085844c0006054d0087854d00db
:104390008180d2008d06d300ecff3b00080444006e
:1043a00089844c000a054d008b854d0008003100c2
:1043b0000404540085845c0006055d0087855d006b
:1043c0000080d2008d06d300f4ff3b0007003700c9
:1043d0000404440085844c0006054d0087854d008b
:1043e0000080d2008d06d300ecff3b000b00e00004
:1043f00004003d000404440085844c0006054d0083
:1044000087854d000006eb008301d1000281d300b7
:104410008180d3000080d3000c86d3008301d100bb
:104420000281d3008180d3000080d3000c86d300aa
:10443000890474008b0575008b84740001003200c0
:10444000610676004f0478004f0578000348a3000a
:1044500007003a000c064600000048008180480032
:1044600002014900838149000804e900f7ff370091
:10447000000137001a0137008c9fbe008a9fbe00e2
:10448000889fbe00ca0007000b056d008a057800f2
:104490000c40e10008003a000900e00082003a0008
:1044a0000af0a1000c047800f3012000f2ff2f00b5
:1044b0006110b9007c0037000c48e10004003a00ac
:1044c000870007000900e00077003a00f4ff37009a
:1044d0000800e000740032000900e00002003a0029
:1044e0007f00070070003700ed3f20008d845400ee
:1044f000090444008a1f7800881f7800871f78000d
:10450000861f7800851f7800841f7800cb19dd0096
:10451000c515de008b8571004b11dd00450dde00f9
:104520000a057100cb08dd00c504de008984700037
:104530004b04dd000440b8000546b8008c80400004
:1045400060814e00044eb8008c8040000d0149008f
:104550008001eb000318ad000456b8000c014100c7
:104560008d8149000002eb000420ad000646b80032
:104570000c0141008d81490060024a00054eb800df
:104580000c0141008d81490060024a000556b800c7
:104590008c8141000d024a008002eb000528ad002d
:1045a0000746b8008c8141000d024a00e0824a00b3
:1045b000064eb8008c8141000d024a00e0824a009c
:1045c0004f0678000c5eb8008c8141000d024a0055
:1045d000e0824a000656b8000c0242008d824a0072
:1045e0000003eb000630ad00074eb8000c0242009d
:1045f0008d824a0060034b004f0678000c5eb800c5
:104600000c0242008d824a0060034b000756b8003e
:104610008c8242000d034b008003eb000738ad0095
:104620004f0678000c5eb8008c8242000d034b00f0
:10463000e0834b004f0678000c5eb8000c0343008b
:104640008d834b004f0478004f0578000748a30086
:104650000a003a0000004000818048000201490041
:104660008381490004024a0085824a0006034b0008
:1046700087834b000804e900f4ff37000306780045
:104680008080700082807000010032006106760038
:104690008701780006017800850078000400780022
:1046a00088047800780037008d0037008c064600bb
:1046b00002003a000000a60000000600600048006a
:1046c000e080480060014900e08149000350a600f5
:1046d000000006008301d1000804e8000000060085
:1046e0000002fd008102fd000203fd008303fd00c6
:1046f0008804fd008a05fd00000006007048e10006
:104700001a0039007d0320000d48e1000a0039003d
:1047100081057000830671008c8575008d8575009c
:104720000006eb001cd8e700610676006000b800c8
:104730006011b800000006007048e1000b0039006d
:104740008c0578000006780001007800820078006f
:10475000030178008001eb0013d8e70061067600c2
:10476000f0845400f4ff3a00000006006160e100ac
:104770000c48ad00f08514008b06dd000966de00f4
:104780000d0676008b0edd000900de000d007000c6
:104790008b16dd008908de008d8070008b1edd0029
:1047a0000911de000d0171008919de00000006000c
:1047b0000d002800fc7f20000d856100441cde00f8
:1047c000ef8161000c046400010032000340a0008e
:1047d0008d856300c43cde00ef8363008c8464003d
:1047e000010032000740a0000c40e10006003a0042
:1047f000ef8661008286760081867600808676006c
:1048000001003200180037000c48e10007003a00b0
:10481000ef8663008686760085867600848676003d
:1048200002003200aeff07000f0037000348a3006c
:1048300005003a0081067000828676008386760045
:10484000010032000804e8000748a30005003a0010
:104850008506720086867600878676000100320023
:104860008904e80000000600cf047800cf05780036
:104870001b003700000278008102780002037800f4
:1048800083037800880478000cf0a70087ff0700f6
:10489000fd7f20000d40e100040035000d0478008c
:1048a0006000b8006011b8000d0037000800e0009b
:1048b0000b003c00040078008500780006017800b9
:1048c00087017800e18414008cff07000cf0a7003a
:1048d00076ff07000004eb000340a7000804e8008f
:1048e0004444dd006fc56100880175004f04be00bf
:1048f0004f05be004f06be0000000600889fbe00a8
:104900008a9fbe0030044200b0844a0030054b004c
:1049100090854b006000b1000898be000a90be0070
:104920000440e10005c8e10006d0e10007d8e1003d
:1049300002003100680040001008e8004f05be008a
:104940004f04be0000000600889fbe008a9fbe0084
:104950003004be002005be000418540005985c0019
:1049600006185d0007985d00110020000440e1007a
:1049700005c8e10006d0e10007d8e10001003900d8
:104980008000eb00108810004f05be004f04be00f1
:10499000000006001200fa00889fbe008a9fbe0039
:1049a0008c9fbe00e0b79f00f1b79f0082bf9f00c1
:1049b00093bf9f000605be000404be000000eb008c
:1049c000d0b79f00c0b79f00b0b79f00a0b79f00af
:1049d00090b79f00000678005fb19700cfb09700b6
:1049e000820141003fb097000200e00004003d005a
:1049f000370007007e805700c0ff07000300370024
:104a0000330007007e805700cfff0700dfb6970016
:104a10000d00e0000c0035006fb29700ffb2970068
:104a20000fbb97009fbb97001000200001002000e3
:104a30006011b800000272008182720002037300ec
:104a4000838373001b0007000c06e80001042000ac
:104a5000810f5600e0ff3a000d00e00004003d0029
:104a60000802be000a03be007e805700a3ff0700b5
:104a70005fa897000000e00005003a001fb2970011
:104a8000afb297003fb39700cfb39700090007007c
:104a90006fb09700ffb097000fb997009fb99700cc
:104aa0004f06be004f05be004f04be000080fa0056
:104ab000000006000100070000000600a4b79f00e8
:104ac000b5b79f00c6b79f00d7b79f00000006008c
:104ad0004f09de0082817100b3b79f004f01de00f5
:104ae0008180400082807000a1b79f008fb0970046
:104af0004f09de00000040000200700090b79f00e8
:104b00007fa897004f01de00818040008280700006
:104b100081b79f000d0007004f3ade000000400003
:104b200004007000f0af9f0008000700040242007c
:104b300085824a0006034b0087834b00dfff070096
:104b40000802be000a03be00000006002fb2970054
:104b5000bfb297004fb39700dfb397000000060085
:104b6000881f780018002000881f780089ff070040
:104b70008f87e9004f04780000000600801feb00db
:104b800084ff07008f87e90000000600889fbe00b1
:104b90008a9fbe00e00f5000e08f5800e00f5900e0
:104ba000e08f59000c003d006044b8006055b8002b
:104bb0000000540081805c0002015d0083815d0083
:104bc000180020001500070008003d00180007002d
:104bd0000004eb00050037000004eb000f000700a5
:104be00002003d001200070018002000dcff070053
:104bf0000800e000060032006022b8006033b80010
:104c00000000520081805a0002015b0083815b003a
:104c10004f05be004f04be0000000600e00f52002a
:104c2000e08f5a00e00f5b00e08f5b0000000600a1
:104c30006044b8006055b8000402540085825c00ee
:104c400006035d0087835d0000000600889fbe00ac
:104c50008a9fbe008c1f7800e00f5000e08f580044
:104c6000e00f5900e08f59000d003d006044b8008e
:104c70006055b8000000540081805c0002015d00b6
:104c800083815d001c0020000820e10009a8e100ec
:104c90000ab0e1000bb8e1000d003d00080037004c
:104ca0000006eb00e00f5200e08f5a00e00f5b00bf
:104cb000e08f5b0006003d006044b8006055b8001e
:104cc0000402540085825c0006035d0087835d005a
:104cd000aaff07000c00e000060032006022b800c6
:104ce0006033b8000000520081805a0002015b006e
:104cf00083815b004f0678004f05be004f04be0065
:104d000000000600889fbe008a9fbe008c9fbe00e8
:104d10000404be000605be00809fbe00829fbe0048
:104d200021000700040678000800be000a01be004a
:104d30001d000700840678004f03be004f02be002e
:104d40008d4f76007fb0970013003300f0ff2f00e7
:104d50008b8f6b0006003b000d0666000c00a70061
:104d60000a00370007f0a600100020000a003700f4
:104d7000880f5200898f5a008a0f5b008b8f5b006f
:104d8000030039001000200001003e000000200058
:104d900007f0a7000000ea004f06be004f05be0066
:104da0004f04be000000060005ff270005826100d9
:104db000070032000428e100010032002400050051
:104dc0000600070001003a00440005000408050041
:104dd00002000700f9ff3a00140005006f8261002d
:104de00081027000850271008502720000000600d9
:104df000800078005002be005003be004439de003f
:104e0000f700b200f37f20000301610009003200c7
:104e10000218e10016003a00850172008301730058
:104e2000838173000008200015003a004000200034
:104e300013003700850172008301730083817300c2
:104e400005003a0004a8be0006a8be00100020001d
:104e50000b0037000201e9000402420085824a008b
:104e600006034b0087834b000748a300f9ff32007d
:104e70000740a00004a8be0006a8be002000200035
:104e80008000980092009800000006006804470027
:104e90000294be000094be00fc0447008694be004d
:104ea0008494be0009007800d1ff07000800780054
:104eb000cfff070099007800814f70000b003b0086
:104ec0000800be000a0007004f00b10003003700d1
:104ed000f3ff2700f2ff2f006110b9004f06be005c
:104ee0004f05be004f04be000080fa00000006001f
:104ef000e48240001078a300070032006402400002
:104f00001178a3003400be001401be00040032007a
:104f10000330a700000006003500be001501be00ea
:104f20000330a000000006001800fa00889fbe00b1
:104f30008a9fbe008c1f78000004be000205be00e0
:104f40000802be000a03be00443ade00f07f2000e3
:104f50000006620020432000800f560067003c00de
:104f60006022b8006033b8000800be00d2fb070022
:104f70000000e000610032000802be000a03be002b
:104f8000b4b79f00c5b79f00d6b79f00e7b79f0093
:104f9000e00f5200e08f5a00e00f5b00e08f5b00f3
:104fa0000b003d006022b8000600200007332400fb
:104fb0000800be000a01be002ffc07006022b800f6
:104fc000060020000733240031fc07000a003700e8
:104fd0006022b80006002000073324000800be004d
:104fe0000a01be002afc07006022b800060020006b
:104ff0000733240020fc07000802be000a03be009d
:105000001dfc07000002be000203be00f4b79f00b3
:1050100085bf9f0096bf9f00a7bf9f00e03f200075
:10502000800f560017003c007fb097008fb89700a4
:105030001fb99700afb99700f0af9f0081b79f00ed
:1050400092b79f00a3b79f006044b8006055b800b6
:105050003fb29700cfb297005fb39700efb39700ce
:10506000e00f5200e08f5a00e00f5b00e08f5b0022
:1050700022003d006044b8000a0020000bff2b0016
:105080001e0037006022b8006033b8007fb0970080
:105090008fb897001fb99700afb997008bfb070037
:1050a0000000e0000c0034007fb297008fba970038
:1050b0001fbb9700afbb97000800be000a01be00ef
:1050c000f3fb07006022b8000600200007ff230062
:1050d000e9fb0700070037007fb297008fba9700ff
:1050e0001fbb9700afbb97000800be000a01be00bf
:1050f000e7fb07000004be000205be000800be007a
:105100000a01be004f0678004f05be004f04be00e6
:085110000080fa000000060017
:020000040000fa
:10511800030200000001000001000000020300007b
:105128004f4b000000460000414900004c000000c1
:1051380053610000766500002044000065660000a9
:10514800617500006c740000732000002573000076
:105158000a00000045450000505200004f4d000075
:105168002056000065720000736900006f6e000031
:1051780020250000687500000a000000466c000049
:105188006f7700002025000068750000205000009f
:1051980049440000204300006f6e00007374000053
:1051a800616e00007473000020500000202500008c
:1051b80075200000492000002575000020440000eb
:1051c80020250000750a00000053000061760000e9
:1051d800696e0000672000004465000066610000f9
:1051e800756c0000747300000043000068610000e3
:1051f8006e20000025680000752000006d6f00001b
:105208006465000020250000752c00002050000077
:10521800726500007373000075720000652000005d
:10522800253800002e320000662000002f200000e4
:10523800253700002e320000662c000020460000b2
:105248006c6f000077200000253800002e33000026
:1052580066200000756c00002f68000072200000b6
:10526800726300003d2500003368000075200000cf
:105278007072000065730000656e0000743d0000e8
:10528800257500000a00000043680000616e0000f8
:1052980020250000687500002c20000065720000c1
:1052a800726f000072200000253600006c69000053
:1052b8002c2000006f7500007470000075740000e9
:1052c80020250000356c0000692c00002025000016
:1052d800366c0000692c000020250000366c0000a8
:1052e800692c000020250000366c0000692c0000a5
:1052f80020630000686100006e6700006520000000
:10530800253500006c6900000a00000045450000d2
:10531800505200004f4d000020250000730a000085
:10532800004100004443000020250000730a0000eb
:105338000049000032430000204d0000555800008d
:1053480020250000730a000000530000746100006b
:10535800727400007570000020740000657300000e
:1053680074200000257300000a0000005368000044
:1053780075740000746900006e6700002064000006
:105388006f7700006e000000536500006e73000028
:1053980069720000696f00006e2000004c47000031
:1053a8003136000020630000686100006e6e000066
:1053b800656c0000202500006875000020250000ad
:1053c800732c000020730000636100006c6500000e
:1053d80020250000750a0000001b00006300000083
:1053e8000d0a000053740000617200007469000027
:1053f8006e6700002e2e00002e0a000000500000ec
:10540800616300006b650000742000007265000095
:105418006365000069760000656400003a200000ba
:10542800436d00006420000025680000750a000034
:10543800004300006c6500006172000065640000b4
:105448000000000057720000697400006520000029
:10545800626c00006f6300006b2000006672000041
