:1000000080312528700808007E1480312E00161ECD
:100010000A280B2813280C1E0E280F2813288F31AE
:10002000B027803123280B1F162817282328191CD6
:100030001A281B2823280F1C1E281F282328873135
:10004000F427803123287E10090080312728FC0105
:100050002000EE01EF01A030840000308500323036
:100060008F31BE2780312030840001308500403040
:100070008F31BE278031A0308400013085002130CF
:100080008F31BE2780317E1020008331CF2B20009E
:100090003408031D5528013031020630323BF93057
:1000A000333B031C542855285F2800302000B4003F
:1000B0000030B3000030B2000030B1003A2A003006
:1000C0002000A7000030A6000C30A5003530A400A9
:1000D0001A30B8000630B9000030BA000030BB005A
:1000E0003408F4003308F3003208F2003108F1005C
:1000F0000030F8000030F7000030F6006430F50002
:1001000086313926803171082000B8077208B93D60
:100110007308BA3D7408BB3D3B08AB003A08AA001F
:100120003908A9003808A80085316B2580312000E6
:100130002708C8002608C7002508C6002408C500EF
:100140000030DA000030D9000030D8000030D7008D
:10015000D101D2010030D0000030CF000030CE00FD
:100160000030CD001030E3006308A4008039031D87
:10017000FF30A500A600A7004808AB004708AA006A
:100180004608A9004508A80085316B25803120006C
:100190002708D6002608D5002508D4002408D30057
:1001A0000730E400E41FD528D628D728182A640889
:1001B000031DDB28DC28E5285608E2005508E1008D
:1001C0005408E0005308DF0016290130B800003061
:1001D000B9000030BA000030BB005308BC0054081E
:1001E000BD005508BE005608BF006408FF3E890ADE
:1001F000FD28BF36BE0CBD0CBC0C890BF9283C0891
:10020000B8073D08B93D3E08BA3D3F08BB3D013047
:10021000BB36BA0CB90CB80C890B08293B08E200B4
:100220003A08E1003908E0003808DF00620861049C
:1002300060045F0403191D291E29142A6208031D86
:1002400029296108031D2929013060020318292981
:100250002A29142A20006208031D39296108031D78
:1002600039296008031D392902305F020318392932
:100270003A29422920006408803A7F3E031C412924
:100280004229142A35302000B8000C30B900003063
:10029000BA000030BB00640A5129B835B90DBA0D57
:1002A000BB0D890B4D293B08F4003A08F3003908CF
:1002B000F2003808F1006308F5008039031DFF30B3
:1002C000F600F700F80086313926803174082000E6
:1002D000CC007308CB007208CA007108C900003056
:1002E000A7000030A6000030A5006430A4004C0830
:1002F000F4004B08F3004A08F2004908F1006208D4
:10030000F8006108F7006008F6005F08F500863124
:100310003926803174082000AB007308AA007208E7
:10032000A9007108A80085316B25803120002708BD
:10033000DE002608DD002508DC002408DB0031088B
:100340005B02B80032085C3BB90033085D3BBA0081
:1003500034085E3BBB003B08F4003A08F300390860
:10036000F2003808F10087314827803171082000F9
:10037000BC007208BD007308BE007408BF003108DD
:100380005702C0003208583BC1003308593BC20035
:1003900034085A3BC3004308F4004208F300410804
:1003A000F2004008F10087314827803120003F08E3
:1003B000803AC4007408803A4402031DE929730896
:1003C0003E02031DE92972083D02031DE929710857
:1003D0003C020318EC29ED29012A5E08DA005D08C9
:1003E000D9005C08D8005B08D7006308D100640816
:1003F000D2006208D0006108CF006008CE005F081C
:10040000CD0034085E06031D0F2A33085D06031D68
:100410000F2A32085C06031D0F2A31085B06031DF4
:10042000122A132A142A182AFF302000E407D2289F
:10043000FF30E3076308803A7F3E0318202A212A11
:10044000B4283508860087015208810036088600E6
:1004500087015108FF3E81003708860087014D085B
:10046000FF3E81005A08B4005908B3005808B20092
:100470005708B10008002000AE01AD012208860037
:10048000870181015A2A87312F278231023A031DC1
:100490004A2A4B2A5A2A2000200886002108870071
:1004A000023081002008203E86000030213D870078
:1004B0000130810020002008203E86000030213DD0
:1004C00087000108031D652A662A6E2A8F31B4272A
:1004D0008231003A031D6D2A6E2A432A200020082B
:1004E000203E86000030213D870001080319792A4B
:1004F0007A2ACC2B942A2008203E86000030213D09
:1005000087000108200784000030213D85008731E5
:100510002F278231800020002008203E86000030F6
:10052000213D8700013081078F31B4278231003AA5
:1005300003199B2A9C2AA92A20002008203E860015
:100540000030213D870020300102031CA82AA92A7F
:100550007B2A20002008203E86000030213D8700B5
:1005600003300102031CB52AB62ACC2B20088600D2
:100570002108870041310108B200213032020318FE
:10058000C22AC32AC92A320825020318C82AC92A3E
:10059000CE2A1E30AE000130AD00832B0430320273
:1005A0000318D32AD42AD92A1F30AE000130AD0057
:1005B000832B2008203E86000030213D8700320832
:1005C0000102031CE42AE52A832B20088600210867
:1005D000870042310108B0002408860087013208F4
:1005E000FC3E810032082007A6000030213DA70014
:1005F0002608FF3E8600FF30273D870001083207AE
:100600003007023EAB002308AC002008033EA600E2
:100610000030213DA7002608AF00B101242B2F0890
:100620008600013087000108AB072C08860087018F
:100630002F08840001308500000881000130AF07D9
:100640000130AC070130B10724088600870101089A
:100650003102031C2C2B2D2B0F2B2B080319312BB4
:10066000322B332BD42A2008203E86000030213D37
:10067000870001083206031D3E2B3F2B472B200825
:10068000203E86000030213D87008101752B200827
:10069000203E86000030213D87000108AA00200886
:1006A000203E86000030213D87003208810221086B
:1006B000F2002008F1002A082007A6000030213DA2
:1006C000A7002608F3002708F4002008203E860033
:1006D0000030213D87000108A800A9012808F50085
:1006E0002908F6008631D426823120003008031D07
:1006F0007A2B7B2B7E2B1F30AE00832B22088600AB
:100700008701300881002D080319872B882BCC2BFB
:100710000130B1009A2B3108200786000030213DBE
:10072000870002300106031D962B972B982BA62BD2
:100730000130B1072008203E86000030213D8700AF
:1007400001083102031CA52BA62B8B2B2008203E71
:1007500086000030213D8700310881022108F20027
:100760002008F10031082007A6000030213DA70035
:100770002608F3002708F4002008203E86000030F9
:10078000213D87000108A800A9012808F5002908D3
:10079000F6008631D426823120002E0808008631EA
:1007A000F62683318731AE278331A030F100013046
:1007B000F2008F31CC2783312100A001A1018B17DA
:1007C0000B17A0302000A0000130A1006F30A20064
:1007D000A830A300D130A4002030A50082313B22F4
:1007E0008331003A031DF52BF62BBA2CA82C2100DF
:1007F0005103031DFC2BFD2B0A2C2808031D012C83
:10080000032C0130042C00308F31DD278331200090
:10081000ED010D2C1F302000ED006D30F300F401D0
:10082000F40A6F08863101268331BA2C0830210082
:100830005106031D1C2C1D2C5C2CC9302000EB0024
:10084000CD30EC00A83086008701403F2100D90060
:10085000413FDA00423FDB00433FDC0020006B08F1
:100860008600870121005908C03F5A08C13F5B0834
:10087000C23F5C08C33F20006C088600870121004E
:100880002C08C03F2D08C13F2E08C23F2F08C33F90
:1008900020006B08E5006C08E6008431D324833126
:1008A0002100C801C830F3000930F40020006F08AF
:1008B000863101268331BA2C1F302000ED006D30C7
:1008C000F300F401F40A6F08863101268331BA2C53
:1008D00021005103031D6D2C6E2C7B2C2808031D59
:1008E000722C742C0130752C00308F31E627833147
:1008F0002000ED017E2C1F302000ED006D30F30054
:10090000F401F40A6F08863101268331BA2C2100E4
:100910005108031D8C2C8D2C9C2C2108CA0020080A
:10092000C900C801C830F3000330F40020006F088C
:10093000863101268331BA2C1F302000ED006D3046
:10094000F300F401F40A6F08863101268331BA2CD2
:1009500020006F08003A0319BA2C013A0319F72B4B
:10096000033A0319162C013A0319682C073A0319A4
:10097000872CBA2C24008F19BE2CBF2CE12B873179
:100980001527833172082100A1007108A0000030F2
:10099000F100F2008731D32783318F31B1278331C2
:1009A000E12B803125282000650886008701403F23
:1009B000B100413FB200423FB300433FB400D330E7
:1009C000B500D430B600D530B7008031472084312F
:1009D00020006508860087013108C03F3208C13F0A
:1009E0003308C23F3408C33F660886008701403F92
:1009F000B100413FB200423FB300433FB400D630A4
:100A0000B500D730B600D830B700803147208431E8
:100A100020006608860087013108C03F3208C13FC8
:100A20003308C23F3408C33F650886008701403F52
:100A3000E700413FE800423FE900433FEA006A081F
:100A40006904680467040319262D272D6A2D66089A
:100A500086008701403FE700413FE800423FE90050
:100A6000433FEA006A086904680467040319392DE2
:100A70003A2D6A2D250014082100D200250094018A
:100A80002100550825008D002100580825009300FD
:100A9000210053082000E7000430E735890B4D2D75
:100AA00025000E0880392000670421005404250029
:100AB0008E00210056082000E7000430E735890B3E
:100AC0005E2D210052088039200067042100570460
:100AD00025009400080000302000AF000030AE0078
:100AE0000030AD000030AC002708260425042404A3
:100AF00003197B2D7C2DBB2D0130B000882D0130DA
:100B0000A435A50DA60DA70D890B802D0130B007CA
:100B1000A71F8B2D8C2D7F2D0130AC35AD0DAE0D6B
:100B2000AF0D890B8D2D27082B02031DA12D260843
:100B30002A02031DA12D25082902031DA12D240829
:100B40002802031CA42DA52DAE2D2408A8022508DB
:100B5000A93B2608AA3B2708AB3B2C140130A7363B
:100B6000A60CA50CA40C890BAF2D0130B002031DFF
:100B7000BA2DBB2D8C2D2F08A7002E08A6002D08FE
:100B8000A5002C08A40008002000960197019801F8
:100B9000FF309100FE3092007F3093001D303E0008
:100BA000CE00F230C300FF30B800E5010C30C400C5
:100BB000B9016030CF00BA01C501D001FF30BB00E0
:100BC000FF30C600FF30D100FF30BC00FF30C7004F
:100BD000FF30D200E8012E00161615303D009300BC
:100BE0000B30C50015309C0015303E0098001630C3
:100BF0003D00C70003303E00A7000A303D00C6009C
:100C00000800F5007408043EF80078087C02031818
:100C10000A2E0B2E0C2E382E02308631A426863159
:100C20000230F60078088631A42686317808F60767
:100C300075088631A42686317508F6072C2E7308B0
:100C4000860087010108F7000130F3077708863135
:100C5000A42686317708F6070130F402740A031DD2
:100C6000322E332E1F2E7603FF3A8631A42686318C
:100C7000080000302000A3000030A2000030A100D6
:100C80000030A000711C452E462E4F2E7508200006
:100C9000A0077608A13D7708A23D7808A33D013062
:100CA000F535F60DF70DF80D890B502E0130F436A1
:100CB000F30CF20CF10C890B572E740873047204B8
:100CC0007104031D642E652E422E20002308F400BB
:100CD0002208F3002108F2002008F10008002E008D
:100CE0000F1020006E080319762E772E862E210015
:100CF0002708403E860001308700700881002708E1
:100D0000013E1F39A70001302000EE0220307C0692
:100D100003198B2E8C2EA12E0130FC0720307C066F
:100D20000319932E942EA12E21002408203E860024
:100D3000013087000108F0002408013E1F39A4009B
:100D4000A22EF00170080800F2000130F1007C08CA
:100D50000319AB2EAC2ED32E2E00191020307C069A
:100D6000031DB32EB42EBB2E720823008C00100D71
:100D7000100D0139F10071080319BF2EC02ECE2EBF
:100D800021002508203E860001308700720881007E
:100D90002508013E1F39A500230090130130FC02F5
:100DA0002E001914D32E08007308F9007108F800FA
:100DB000E92E79088600013087000108F70001302C
:100DC000F907780886000130870077088100013034
:100DD000F8070130F5020030F63B750A031DF42ECA
:100DE000760A031DF42EF52ED92E08008F31C42764
:100DF00086318531C42586318F31D42786318731BC
:100E0000C127863187319A2786318731722786310B
:100E10008731862786318731E42786318F31F12764
:100E2000863187315D278631080024008E140C0836
:100E3000FB000D08FA007B08F300F4017A08F500C6
:100E4000F6017508F600F50173087504F8007408DA
:100E50007604F9007908F2007808F1000800F10141
:100E6000203020006E060319362F372F462F210021
:100E70002608403E8600013087000108F100260860
:100E8000013E1F39A60001302000EE07710808005E
:100E9000F41B4B2F4C2F4D2F5C2F7109F100720961
:100EA000F2007309F3007409F400F10A0319F20A5D
:100EB0000319F30A0319F40A0800903024008F0084
:100EC0009001013091008D018C010D082100A300DB
:100ED00024000C082100A2002E001010373024003E
:100EE0008E0008000A303C00A5000C30A6000E3031
:100EF000A7000E30A8000E30A9000230AA0008306A
:100F0000AB00AC01AD018030A400080002303C0011
:100F10009B0005309C000E309D000E309E000E3070
:100F20009F000230A0000830A100A201A301803080
:100F30009A00080002303C009100053092000C300D
:100F400093000C3094000C3095000230960008306D
:100F50009700980199018030900008002100A701B6
:100F6000A60120302000EE002100A501A4012030C0
:100F7000FC006F30F1000630F2008F31B827873166
:100F80000800403023008F00343090009201FF3081
:100F90008C000230F1000030F2008F31B827873129
:100FA0002E001914080024000E1DD72FD82FDF2F74
:100FB0000E1072088D0071088C000E14E32F720859
:100FC0008D0071088C0008000B302500960006305B
:100FD000950001309700FA30930092012E00901195
:100FE000713025009400080023000C08F000210057
:100FF0005E088A005D080A00873123008C00080023
:101F6000080024008F15080020006E08203C08009F
:101F700072082100DE007108DD00080064008001A5
:101F80000131890BBF2F00342F0096019701980172
:101F900099019A019B0108007108203E86000030DB
:101FA000723D870081010800603031008D008F0193
:101FB00091010630930092010800F100710C250098
:101FC000031C8E1303188E1794170800F100710874
:101FD000031DEB2FEE2F3C002515F02F3C002511A3
:101FE00008000A302500900004308F009101043071
:101FF0008D008C012E009010063025008E00080008
:020000040001F9
:0A000E00EC3FFF3F9F3FFF3FFF3F25
:00000001FF
